{
  "_format": "hh-sol-artifact-1",
  "contractName": "FeedRegistry",
  "sourceName": "contracts/FeedRegistry.sol",
  "abi": [
    {
      "inputs": [],
      "stateMutability": "nonpayable",
      "type": "constructor"
    },
    {
      "inputs": [],
      "name": "getPublisherContract",
      "outputs": [
        {
          "internalType": "address",
          "name": "",
          "type": "address"
        }
      ],
      "stateMutability": "view",
      "type": "function"
    },
    {
      "inputs": [],
      "name": "getSubscriberContract",
      "outputs": [
        {
          "internalType": "address",
          "name": "",
          "type": "address"
        }
      ],
      "stateMutability": "view",
      "type": "function"
    },
    {
      "inputs": [
        {
          "internalType": "address",
          "name": "",
          "type": "address"
        }
      ],
      "name": "publisherContracts",
      "outputs": [
        {
          "internalType": "address",
          "name": "",
          "type": "address"
        }
      ],
      "stateMutability": "view",
      "type": "function"
    },
    {
      "inputs": [
        {
          "internalType": "string",
          "name": "feedUrl",
          "type": "string"
        }
      ],
      "name": "setupPublisher",
      "outputs": [],
      "stateMutability": "nonpayable",
      "type": "function"
    },
    {
      "inputs": [],
      "name": "setupSubscriber",
      "outputs": [],
      "stateMutability": "nonpayable",
      "type": "function"
    },
    {
      "inputs": [
        {
          "internalType": "address",
          "name": "",
          "type": "address"
        }
      ],
      "name": "subscriberContracts",
      "outputs": [
        {
          "internalType": "address",
          "name": "",
          "type": "address"
        }
      ],
      "stateMutability": "view",
      "type": "function"
    }
  ],
  "bytecode": "0x608060405234801561001057600080fd5b5061350d806100206000396000f3fe608060405234801561001057600080fd5b50600436106100625760003560e01c806343fe3e16146100675780637eee4fb914610097578063a4e52bd5146100b3578063c2daf4bc146100d1578063e38bdd19146100db578063f6d4d0eb146100f9575b600080fd5b610081600480360381019061007c919061059b565b610129565b60405161008e91906105d7565b60405180910390f35b6100b160048036038101906100ac9190610738565b61015c565b005b6100bb6102e6565b6040516100c891906105d7565b60405180910390f35b6100d9610352565b005b6100e3610471565b6040516100f091906105d7565b60405180910390f35b610113600480360381019061010e919061059b565b6104dc565b60405161012091906105d7565b60405180910390f35b60006020528060005260406000206000915054906101000a900473ffffffffffffffffffffffffffffffffffffffff1681565b600060405161016a9061050f565b604051809103906000f080158015610186573d6000803e3d6000fd5b5090508073ffffffffffffffffffffffffffffffffffffffff166384b439c0836040518263ffffffff1660e01b81526004016101c29190610809565b600060405180830381600087803b1580156101dc57600080fd5b505af11580156101f0573d6000803e3d6000fd5b505050508073ffffffffffffffffffffffffffffffffffffffff166313af4035336040518263ffffffff1660e01b815260040161022d91906105d7565b600060405180830381600087803b15801561024757600080fd5b505af115801561025b573d6000803e3d6000fd5b505050506000819050806000803373ffffffffffffffffffffffffffffffffffffffff1673ffffffffffffffffffffffffffffffffffffffff16815260200190815260200160002060006101000a81548173ffffffffffffffffffffffffffffffffffffffff021916908373ffffffffffffffffffffffffffffffffffffffff160217905550505050565b600080600160003373ffffffffffffffffffffffffffffffffffffffff1673ffffffffffffffffffffffffffffffffffffffff16815260200190815260200160002060009054906101000a900473ffffffffffffffffffffffffffffffffffffffff1690508091505090565b60006040516103609061051c565b604051809103906000f08015801561037c573d6000803e3d6000fd5b5090508073ffffffffffffffffffffffffffffffffffffffff166313af4035336040518263ffffffff1660e01b81526004016103b891906105d7565b600060405180830381600087803b1580156103d257600080fd5b505af11580156103e6573d6000803e3d6000fd5b50505050600081905080600160003373ffffffffffffffffffffffffffffffffffffffff1673ffffffffffffffffffffffffffffffffffffffff16815260200190815260200160002060006101000a81548173ffffffffffffffffffffffffffffffffffffffff021916908373ffffffffffffffffffffffffffffffffffffffff1602179055505050565b6000806000803373ffffffffffffffffffffffffffffffffffffffff1673ffffffffffffffffffffffffffffffffffffffff16815260200190815260200160002060009054906101000a900473ffffffffffffffffffffffffffffffffffffffff1690508091505090565b60016020528060005260406000206000915054906101000a900473ffffffffffffffffffffffffffffffffffffffff1681565b6110608061082c83390190565b611c4c8061188c83390190565b6000604051905090565b600080fd5b600080fd5b600073ffffffffffffffffffffffffffffffffffffffff82169050919050565b60006105688261053d565b9050919050565b6105788161055d565b811461058357600080fd5b50565b6000813590506105958161056f565b92915050565b6000602082840312156105b1576105b0610533565b5b60006105bf84828501610586565b91505092915050565b6105d18161055d565b82525050565b60006020820190506105ec60008301846105c8565b92915050565b600080fd5b600080fd5b6000601f19601f8301169050919050565b7f4e487b7100000000000000000000000000000000000000000000000000000000600052604160045260246000fd5b610645826105fc565b810181811067ffffffffffffffff821117156106645761066361060d565b5b80604052505050565b6000610677610529565b9050610683828261063c565b919050565b600067ffffffffffffffff8211156106a3576106a261060d565b5b6106ac826105fc565b9050602081019050919050565b82818337600083830152505050565b60006106db6106d684610688565b61066d565b9050828152602081018484840111156106f7576106f66105f7565b5b6107028482856106b9565b509392505050565b600082601f83011261071f5761071e6105f2565b5b813561072f8482602086016106c8565b91505092915050565b60006020828403121561074e5761074d610533565b5b600082013567ffffffffffffffff81111561076c5761076b610538565b5b6107788482850161070a565b91505092915050565b600081519050919050565b600082825260208201905092915050565b60005b838110156107bb5780820151818401526020810190506107a0565b838111156107ca576000848401525b50505050565b60006107db82610781565b6107e5818561078c565b93506107f581856020860161079d565b6107fe816105fc565b840191505092915050565b6000602082019050818103600083015261082381846107d0565b90509291505056fe608060405234801561001057600080fd5b50336000806101000a81548173ffffffffffffffffffffffffffffffffffffffff021916908373ffffffffffffffffffffffffffffffffffffffff160217905550611000806100606000396000f3fe608060405234801561001057600080fd5b506004361061007d5760003560e01c80637b7636a11161005b5780637b7636a1146100d85780637c83510f1461010857806384b439c0146101265780638da5cb5b146101425761007d565b806313af4035146100825780631c4bdaa31461009e578063243e280b146100bc575b600080fd5b61009c6004803603810190610097919061099a565b610160565b005b6100a6610231565b6040516100b391906109e0565b60405180910390f35b6100d660048036038101906100d19190610b41565b61023e565b005b6100f260048036038101906100ed9190610bb6565b6103a4565b6040516100ff9190610cca565b60405180910390f35b6101106104cd565b60405161011d9190610d36565b60405180910390f35b610140600480360381019061013b9190610b41565b61055f565b005b61014a6106d1565b6040516101579190610d67565b60405180910390f35b3373ffffffffffffffffffffffffffffffffffffffff1660008054906101000a900473ffffffffffffffffffffffffffffffffffffffff1673ffffffffffffffffffffffffffffffffffffffff16146101ee576040517f08c379a00000000000000000000000000000000000000000000000000000000081526004016101e590610df4565b60405180910390fd5b806000806101000a81548173ffffffffffffffffffffffffffffffffffffffff021916908373ffffffffffffffffffffffffffffffffffffffff16021790555050565b6000600280549050905090565b3373ffffffffffffffffffffffffffffffffffffffff1660008054906101000a900473ffffffffffffffffffffffffffffffffffffffff1673ffffffffffffffffffffffffffffffffffffffff16146102cc576040517f08c379a00000000000000000000000000000000000000000000000000000000081526004016102c390610df4565b60405180910390fd5b60006002805490509050600260405180606001604052808381526020014281526020018481525090806001815401808255809150506001900390600052602060002090600302016000909190919091506000820151816000015560208201518160010155604082015181600201908051906020019061034c929190610864565b505050610373604051806060016040528060228152602001610fa9602291393383856106fa565b807f6dda240fc875f1ee65b95abd125377f81bf199395a55b7f2ef46c713cae8c29860405160405180910390a25050565b6103ac6108ea565b60028054905082106103f3576040517f08c379a00000000000000000000000000000000000000000000000000000000081526004016103ea90610e60565b60405180910390fd5b6002828154811061040757610406610e80565b5b9060005260206000209060030201604051806060016040529081600082015481526020016001820154815260200160028201805461044490610ede565b80601f016020809104026020016040519081016040528092919081815260200182805461047090610ede565b80156104bd5780601f10610492576101008083540402835291602001916104bd565b820191906000526020600020905b8154815290600101906020018083116104a057829003601f168201915b5050505050815250509050919050565b6060600180546104dc90610ede565b80601f016020809104026020016040519081016040528092919081815260200182805461050890610ede565b80156105555780601f1061052a57610100808354040283529160200191610555565b820191906000526020600020905b81548152906001019060200180831161053857829003601f168201915b5050505050905090565b3373ffffffffffffffffffffffffffffffffffffffff1660008054906101000a900473ffffffffffffffffffffffffffffffffffffffff1673ffffffffffffffffffffffffffffffffffffffff16146105ed576040517f08c379a00000000000000000000000000000000000000000000000000000000081526004016105e490610df4565b60405180910390fd5b8060019080519060200190610603929190610864565b506106ce6040518060400160405280601d81526020017f4163636f756e742025732073657420666565642055524c3a2027257327000000815250336001805461064b90610ede565b80601f016020809104026020016040519081016040528092919081815260200182805461067790610ede565b80156106c45780601f10610699576101008083540402835291602001916106c4565b820191906000526020600020905b8154815290600101906020018083116106a757829003601f168201915b505050505061079c565b50565b60008060009054906101000a900473ffffffffffffffffffffffffffffffffffffffff16905090565b610796848484846040516024016107149493929190610f10565b6040516020818303038152906040527f5a477632000000000000000000000000000000000000000000000000000000007bffffffffffffffffffffffffffffffffffffffffffffffffffffffff19166020820180517bffffffffffffffffffffffffffffffffffffffffffffffffffffffff838183161783525050505061083b565b50505050565b6108368383836040516024016107b493929190610f63565b6040516020818303038152906040527fe0e9ad4f000000000000000000000000000000000000000000000000000000007bffffffffffffffffffffffffffffffffffffffffffffffffffffffff19166020820180517bffffffffffffffffffffffffffffffffffffffffffffffffffffffff838183161783525050505061083b565b505050565b60008151905060006a636f6e736f6c652e6c6f679050602083016000808483855afa5050505050565b82805461087090610ede565b90600052602060002090601f01602090048101928261089257600085556108d9565b82601f106108ab57805160ff19168380011785556108d9565b828001600101855582156108d9579182015b828111156108d85782518255916020019190600101906108bd565b5b5090506108e6919061090b565b5090565b60405180606001604052806000815260200160008152602001606081525090565b5b8082111561092457600081600090555060010161090c565b5090565b6000604051905090565b600080fd5b600080fd5b600073ffffffffffffffffffffffffffffffffffffffff82169050919050565b60006109678261093c565b9050919050565b6109778161095c565b811461098257600080fd5b50565b6000813590506109948161096e565b92915050565b6000602082840312156109b0576109af610932565b5b60006109be84828501610985565b91505092915050565b6000819050919050565b6109da816109c7565b82525050565b60006020820190506109f560008301846109d1565b92915050565b600080fd5b600080fd5b6000601f19601f8301169050919050565b7f4e487b7100000000000000000000000000000000000000000000000000000000600052604160045260246000fd5b610a4e82610a05565b810181811067ffffffffffffffff82111715610a6d57610a6c610a16565b5b80604052505050565b6000610a80610928565b9050610a8c8282610a45565b919050565b600067ffffffffffffffff821115610aac57610aab610a16565b5b610ab582610a05565b9050602081019050919050565b82818337600083830152505050565b6000610ae4610adf84610a91565b610a76565b905082815260208101848484011115610b0057610aff610a00565b5b610b0b848285610ac2565b509392505050565b600082601f830112610b2857610b276109fb565b5b8135610b38848260208601610ad1565b91505092915050565b600060208284031215610b5757610b56610932565b5b600082013567ffffffffffffffff811115610b7557610b74610937565b5b610b8184828501610b13565b91505092915050565b610b93816109c7565b8114610b9e57600080fd5b50565b600081359050610bb081610b8a565b92915050565b600060208284031215610bcc57610bcb610932565b5b6000610bda84828501610ba1565b91505092915050565b610bec816109c7565b82525050565b600081519050919050565b600082825260208201905092915050565b60005b83811015610c2c578082015181840152602081019050610c11565b83811115610c3b576000848401525b50505050565b6000610c4c82610bf2565b610c568185610bfd565b9350610c66818560208601610c0e565b610c6f81610a05565b840191505092915050565b6000606083016000830151610c926000860182610be3565b506020830151610ca56020860182610be3565b5060408301518482036040860152610cbd8282610c41565b9150508091505092915050565b60006020820190508181036000830152610ce48184610c7a565b905092915050565b600082825260208201905092915050565b6000610d0882610bf2565b610d128185610cec565b9350610d22818560208601610c0e565b610d2b81610a05565b840191505092915050565b60006020820190508181036000830152610d508184610cfd565b905092915050565b610d618161095c565b82525050565b6000602082019050610d7c6000830184610d58565b92915050565b7f43616c6c6572206f66207468652066756e6374696f6e206973206e6f7420746860008201527f65206f776e657221000000000000000000000000000000000000000000000000602082015250565b6000610dde602883610cec565b9150610de982610d82565b604082019050919050565b60006020820190508181036000830152610e0d81610dd1565b9050919050565b7f507562206974656d20646f6573206e6f74206578697374210000000000000000600082015250565b6000610e4a601883610cec565b9150610e5582610e14565b602082019050919050565b60006020820190508181036000830152610e7981610e3d565b9050919050565b7f4e487b7100000000000000000000000000000000000000000000000000000000600052603260045260246000fd5b7f4e487b7100000000000000000000000000000000000000000000000000000000600052602260045260246000fd5b60006002820490506001821680610ef657607f821691505b60208210811415610f0a57610f09610eaf565b5b50919050565b60006080820190508181036000830152610f2a8187610cfd565b9050610f396020830186610d58565b610f4660408301856109d1565b8181036060830152610f588184610cfd565b905095945050505050565b60006060820190508181036000830152610f7d8186610cfd565b9050610f8c6020830185610d58565b8181036040830152610f9e8184610cfd565b905094935050505056fe4163636f756e74202573207075626c6973686564206974656d2025643a2027257327a264697066735822122068a238f907836bf5e1a8f099a03297a4a23918462157df7bf1e37756b1c4fdd264736f6c634300080c0033608060405234801561001057600080fd5b50336000806101000a81548173ffffffffffffffffffffffffffffffffffffffff021916908373ffffffffffffffffffffffffffffffffffffffff160217905550611bec806100606000396000f3fe608060405234801561001057600080fd5b50600436106100885760003560e01c80637262561c1161005b5780637262561c146101015780637358152a1461011d5780638b46a2b4146101395780638da5cb5b1461015557610088565b80630472f4181461008d57806313af4035146100ab5780633b47a9ac146100c757806341a7726a146100e5575b600080fd5b610095610173565b6040516100a291906115ce565b60405180910390f35b6100c560048036038101906100c09190611621565b610277565b005b6100cf610348565b6040516100dc919061172c565b60405180910390f35b6100ff60048036038101906100fa9190611621565b610407565b005b61011b60048036038101906101169190611621565b6106dd565b005b6101376004803603810190610132919061177a565b610a5e565b005b610153600480360381019061014e91906117df565b610e91565b005b61015d611209565b60405161016a9190611841565b60405180910390f35b60606003805480602002602001604051908101604052809291908181526020016000905b8282101561026e57838290600052602060002090600402016040518060800160405290816000820160009054906101000a900473ffffffffffffffffffffffffffffffffffffffff1673ffffffffffffffffffffffffffffffffffffffff1673ffffffffffffffffffffffffffffffffffffffff168152602001600182015481526020016002820160009054906101000a900460ff16600181111561023f5761023e61147f565b5b60018111156102515761025061147f565b5b815260200160038201548152505081526020019060010190610197565b50505050905090565b3373ffffffffffffffffffffffffffffffffffffffff1660008054906101000a900473ffffffffffffffffffffffffffffffffffffffff1673ffffffffffffffffffffffffffffffffffffffff1614610305576040517f08c379a00000000000000000000000000000000000000000000000000000000081526004016102fc906118df565b60405180910390fd5b806000806101000a81548173ffffffffffffffffffffffffffffffffffffffff021916908373ffffffffffffffffffffffffffffffffffffffff16021790555050565b60606001805480602002602001604051908101604052809291908181526020016000905b828210156103fe57838290600052602060002090600202016040518060400160405290816000820160009054906101000a900473ffffffffffffffffffffffffffffffffffffffff1673ffffffffffffffffffffffffffffffffffffffff1673ffffffffffffffffffffffffffffffffffffffff1681526020016001820154815250508152602001906001019061036c565b50505050905090565b3373ffffffffffffffffffffffffffffffffffffffff1660008054906101000a900473ffffffffffffffffffffffffffffffffffffffff1673ffffffffffffffffffffffffffffffffffffffff1614610495576040517f08c379a000000000000000000000000000000000000000000000000000000000815260040161048c906118df565b60405180910390fd5b600060405180604001604052808373ffffffffffffffffffffffffffffffffffffffff16815260200142815250905060006104cf83611232565b90506000600260008373ffffffffffffffffffffffffffffffffffffffff1673ffffffffffffffffffffffffffffffffffffffff16815260200190815260200160002054905060008111156105a557826001808361052d919061192e565b8154811061053e5761053d611962565b5b906000526020600020906002020160008201518160000160006101000a81548173ffffffffffffffffffffffffffffffffffffffff021916908373ffffffffffffffffffffffffffffffffffffffff16021790555060208201518160010155905050610671565b600183908060018154018082558091505060019003906000526020600020906002020160009091909190915060008201518160000160006101000a81548173ffffffffffffffffffffffffffffffffffffffff021916908373ffffffffffffffffffffffffffffffffffffffff160217905550602082015181600101555050600180549050905080600260008473ffffffffffffffffffffffffffffffffffffffff1673ffffffffffffffffffffffffffffffffffffffff168152602001908152602001600020819055505b610694604051806060016040528060308152602001611afd603091393386611244565b8373ffffffffffffffffffffffffffffffffffffffff167f6ff6eaed699c246ce4a81c625294e51377e7c325c1c73e5bfa3b44be72806d0260405160405180910390a250505050565b3373ffffffffffffffffffffffffffffffffffffffff1660008054906101000a900473ffffffffffffffffffffffffffffffffffffffff1673ffffffffffffffffffffffffffffffffffffffff161461076b576040517f08c379a0000000000000000000000000000000000000000000000000000000008152600401610762906118df565b60405180910390fd5b600061077682611232565b90506000600260008373ffffffffffffffffffffffffffffffffffffffff1673ffffffffffffffffffffffffffffffffffffffff16815260200190815260200160002054905060008114156107cc575050610a5b565b6000600260008473ffffffffffffffffffffffffffffffffffffffff1673ffffffffffffffffffffffffffffffffffffffff168152602001908152602001600020819055506001808054905011156109985760006001808080549050610832919061192e565b8154811061084357610842611962565b5b90600052602060002090600202016040518060400160405290816000820160009054906101000a900473ffffffffffffffffffffffffffffffffffffffff1673ffffffffffffffffffffffffffffffffffffffff1673ffffffffffffffffffffffffffffffffffffffff168152602001600182015481525050905060006108cd8260000151611232565b905081600180856108de919061192e565b815481106108ef576108ee611962565b5b906000526020600020906002020160008201518160000160006101000a81548173ffffffffffffffffffffffffffffffffffffffff021916908373ffffffffffffffffffffffffffffffffffffffff1602179055506020820151816001015590505082600260008373ffffffffffffffffffffffffffffffffffffffff1673ffffffffffffffffffffffffffffffffffffffff1681526020019081526020016000208190555050505b60018054806109aa576109a9611991565b5b6001900381819060005260206000209060020201600080820160006101000a81549073ffffffffffffffffffffffffffffffffffffffff0219169055600182016000905550509055610a15604051806060016040528060308152602001611b87603091393385611244565b8273ffffffffffffffffffffffffffffffffffffffff167fd4da1c95251a1c543838518bae8531facb525bc74cf1ac0ed8fb308479958c2e60405160405180910390a250505b50565b3373ffffffffffffffffffffffffffffffffffffffff1660008054906101000a900473ffffffffffffffffffffffffffffffffffffffff1673ffffffffffffffffffffffffffffffffffffffff1614610aec576040517f08c379a0000000000000000000000000000000000000000000000000000000008152600401610ae3906118df565b60405180910390fd5b6000610af883836112e3565b90506000600460008373ffffffffffffffffffffffffffffffffffffffff1673ffffffffffffffffffffffffffffffffffffffff1681526020019081526020016000205490506000811415610b4e575050610e8d565b6000600460008473ffffffffffffffffffffffffffffffffffffffff1673ffffffffffffffffffffffffffffffffffffffff1681526020019081526020016000208190555060016003805490501115610da257600060036001600380549050610bb7919061192e565b81548110610bc857610bc7611962565b5b90600052602060002090600402016040518060800160405290816000820160009054906101000a900473ffffffffffffffffffffffffffffffffffffffff1673ffffffffffffffffffffffffffffffffffffffff1673ffffffffffffffffffffffffffffffffffffffff168152602001600182015481526020016002820160009054906101000a900460ff166001811115610c6657610c6561147f565b5b6001811115610c7857610c7761147f565b5b815260200160038201548152505090506000610c9c826000015183602001516112e3565b9050816003600185610cae919061192e565b81548110610cbf57610cbe611962565b5b906000526020600020906004020160008201518160000160006101000a81548173ffffffffffffffffffffffffffffffffffffffff021916908373ffffffffffffffffffffffffffffffffffffffff1602179055506020820151816001015560408201518160020160006101000a81548160ff02191690836001811115610d4957610d4861147f565b5b02179055506060820151816003015590505082600460008373ffffffffffffffffffffffffffffffffffffffff1673ffffffffffffffffffffffffffffffffffffffff1681526020019081526020016000208190555050505b6003805480610db457610db3611991565b5b6001900381819060005260206000209060040201600080820160006101000a81549073ffffffffffffffffffffffffffffffffffffffff021916905560018201600090556002820160006101000a81549060ff0219169055600382016000905550509055610e3c6040518060600160405280602d8152602001611b5a602d913933868661131a565b8373ffffffffffffffffffffffffffffffffffffffff167f8f22061a7389d6620c735385174537c8baaf1439735a4a569906d00f95c0458184604051610e8291906119cf565b60405180910390a250505b5050565b3373ffffffffffffffffffffffffffffffffffffffff1660008054906101000a900473ffffffffffffffffffffffffffffffffffffffff1673ffffffffffffffffffffffffffffffffffffffff1614610f1f576040517f08c379a0000000000000000000000000000000000000000000000000000000008152600401610f16906118df565b60405180910390fd5b600060405180608001604052808573ffffffffffffffffffffffffffffffffffffffff168152602001848152602001836001811115610f6157610f6061147f565b5b81526020014281525090506000610f7885856112e3565b90506000600460008373ffffffffffffffffffffffffffffffffffffffff1673ffffffffffffffffffffffffffffffffffffffff168152602001908152602001600020549050600081111561108957826003600183610fd7919061192e565b81548110610fe857610fe7611962565b5b906000526020600020906004020160008201518160000160006101000a81548173ffffffffffffffffffffffffffffffffffffffff021916908373ffffffffffffffffffffffffffffffffffffffff1602179055506020820151816001015560408201518160020160006101000a81548160ff021916908360018111156110725761107161147f565b5b02179055506060820151816003015590505061118f565b600383908060018154018082558091505060019003906000526020600020906004020160009091909190915060008201518160000160006101000a81548173ffffffffffffffffffffffffffffffffffffffff021916908373ffffffffffffffffffffffffffffffffffffffff1602179055506020820151816001015560408201518160020160006101000a81548160ff021916908360018111156111315761113061147f565b5b0217905550606082015181600301555050600380549050905080600460008473ffffffffffffffffffffffffffffffffffffffff1673ffffffffffffffffffffffffffffffffffffffff168152602001908152602001600020819055505b6111b36040518060600160405280602d8152602001611b2d602d913933888861131a565b8573ffffffffffffffffffffffffffffffffffffffff167f66ddc840fe0c0e2d79e178ffe79c6ede8c6fcf1c61cf1edb4adb1d1e40ee3278866040516111f991906119cf565b60405180910390a2505050505050565b60008060009054906101000a900473ffffffffffffffffffffffffffffffffffffffff16905090565b600061123d826113bc565b9050919050565b6112de83838360405160240161125c93929190611a72565b6040516020818303038152906040527ffcec75e0000000000000000000000000000000000000000000000000000000007bffffffffffffffffffffffffffffffffffffffffffffffffffffffff19166020820180517bffffffffffffffffffffffffffffffffffffffffffffffffffffffff83818316178352505050506113c6565b505050565b60006112ee826113ef565b60106112f9856113bc565b73ffffffffffffffffffffffffffffffffffffffff16901b17905092915050565b6113b6848484846040516024016113349493929190611ab0565b6040516020818303038152906040527f8ef3f399000000000000000000000000000000000000000000000000000000007bffffffffffffffffffffffffffffffffffffffffffffffffffffffff19166020820180517bffffffffffffffffffffffffffffffffffffffffffffffffffffffff83818316178352505050506113c6565b50505050565b6000819050919050565b60008151905060006a636f6e736f6c652e6c6f679050602083016000808483855afa5050505050565b6000819050919050565b600081519050919050565b600082825260208201905092915050565b6000819050602082019050919050565b600073ffffffffffffffffffffffffffffffffffffffff82169050919050565b600061145082611425565b9050919050565b61146081611445565b82525050565b6000819050919050565b61147981611466565b82525050565b7f4e487b7100000000000000000000000000000000000000000000000000000000600052602160045260246000fd5b600281106114bf576114be61147f565b5b50565b60008190506114d0826114ae565b919050565b60006114e0826114c2565b9050919050565b6114f0816114d5565b82525050565b60808201600082015161150c6000850182611457565b50602082015161151f6020850182611470565b50604082015161153260408501826114e7565b5060608201516115456060850182611470565b50505050565b600061155783836114f6565b60808301905092915050565b6000602082019050919050565b600061157b826113f9565b6115858185611404565b935061159083611415565b8060005b838110156115c15781516115a8888261154b565b97506115b383611563565b925050600181019050611594565b5085935050505092915050565b600060208201905081810360008301526115e88184611570565b905092915050565b600080fd5b6115fe81611445565b811461160957600080fd5b50565b60008135905061161b816115f5565b92915050565b600060208284031215611637576116366115f0565b5b60006116458482850161160c565b91505092915050565b600081519050919050565b600082825260208201905092915050565b6000819050602082019050919050565b6040820160008201516116906000850182611457565b5060208201516116a36020850182611470565b50505050565b60006116b5838361167a565b60408301905092915050565b6000602082019050919050565b60006116d98261164e565b6116e38185611659565b93506116ee8361166a565b8060005b8381101561171f57815161170688826116a9565b9750611711836116c1565b9250506001810190506116f2565b5085935050505092915050565b6000602082019050818103600083015261174681846116ce565b905092915050565b61175781611466565b811461176257600080fd5b50565b6000813590506117748161174e565b92915050565b60008060408385031215611791576117906115f0565b5b600061179f8582860161160c565b92505060206117b085828601611765565b9150509250929050565b600281106117c757600080fd5b50565b6000813590506117d9816117ba565b92915050565b6000806000606084860312156117f8576117f76115f0565b5b60006118068682870161160c565b935050602061181786828701611765565b9250506040611828868287016117ca565b9150509250925092565b61183b81611445565b82525050565b60006020820190506118566000830184611832565b92915050565b600082825260208201905092915050565b7f43616c6c6572206f66207468652066756e6374696f6e206973206e6f7420746860008201527f65206f776e657221000000000000000000000000000000000000000000000000602082015250565b60006118c960288361185c565b91506118d48261186d565b604082019050919050565b600060208201905081810360008301526118f8816118bc565b9050919050565b7f4e487b7100000000000000000000000000000000000000000000000000000000600052601160045260246000fd5b600061193982611466565b915061194483611466565b925082821015611957576119566118ff565b5b828203905092915050565b7f4e487b7100000000000000000000000000000000000000000000000000000000600052603260045260246000fd5b7f4e487b7100000000000000000000000000000000000000000000000000000000600052603160045260246000fd5b6119c981611466565b82525050565b60006020820190506119e460008301846119c0565b92915050565b600081519050919050565b60005b83811015611a135780820151818401526020810190506119f8565b83811115611a22576000848401525b50505050565b6000601f19601f8301169050919050565b6000611a44826119ea565b611a4e818561185c565b9350611a5e8185602086016119f5565b611a6781611a28565b840191505092915050565b60006060820190508181036000830152611a8c8186611a39565b9050611a9b6020830185611832565b611aa86040830184611832565b949350505050565b60006080820190508181036000830152611aca8187611a39565b9050611ad96020830186611832565b611ae66040830185611832565b611af360608301846119c0565b9594505050505056fe4163636f756e74202573206372656174656420737562736372697074696f6e206f6e207075626c69736865722025732e4163636f756e742025732063726561746564207265616374696f6e206f6e20707562206974656d2025732f25644163636f756e742025732072656d6f766564207265616374696f6e206f6e20707562206974656d2025732f25644163636f756e742025732072656d6f76656420737562736372697074696f6e206f6e207075626c69736865722025732ea2646970667358221220725695f8daf7de3ddfac3259ed93390f69d8e9e6b1e97d5229d7260234d77c6464736f6c634300080c0033a26469706673582212201fc107cf5ce80320c325ed84fd6e4b35dd373077443a47c62be0fcbd095aaf6e64736f6c634300080c0033",
  "linkReferences": {},
  "deployedLinkReferences": {}
}