{
  "contractName": "FeedSubscriber",
  "abi": [
    {
      "inputs": [],
      "stateMutability": "nonpayable",
      "type": "constructor"
    },
    {
      "anonymous": false,
      "inputs": [
        {
          "indexed": true,
          "internalType": "address",
          "name": "pubAddress",
          "type": "address"
        },
        {
          "indexed": false,
          "internalType": "uint256",
          "name": "_pubItemNum",
          "type": "uint256"
        }
      ],
      "name": "CreateReaction",
      "type": "event"
    },
    {
      "anonymous": false,
      "inputs": [
        {
          "indexed": true,
          "internalType": "address",
          "name": "pubAddress",
          "type": "address"
        }
      ],
      "name": "CreateSubscription",
      "type": "event"
    },
    {
      "anonymous": false,
      "inputs": [
        {
          "indexed": true,
          "internalType": "address",
          "name": "pubAddress",
          "type": "address"
        },
        {
          "indexed": false,
          "internalType": "uint256",
          "name": "_pubItemNum",
          "type": "uint256"
        }
      ],
      "name": "RemoveReaction",
      "type": "event"
    },
    {
      "anonymous": false,
      "inputs": [
        {
          "indexed": true,
          "internalType": "address",
          "name": "pubAddress",
          "type": "address"
        }
      ],
      "name": "RemoveSubscription",
      "type": "event"
    },
    {
      "inputs": [],
      "name": "owner",
      "outputs": [
        {
          "internalType": "address",
          "name": "",
          "type": "address"
        }
      ],
      "stateMutability": "view",
      "type": "function"
    },
    {
      "inputs": [
        {
          "internalType": "address",
          "name": "_newOwner",
          "type": "address"
        }
      ],
      "name": "setOwner",
      "outputs": [],
      "stateMutability": "nonpayable",
      "type": "function"
    },
    {
      "inputs": [
        {
          "internalType": "address",
          "name": "pubAddr",
          "type": "address"
        }
      ],
      "name": "subscribe",
      "outputs": [],
      "stateMutability": "nonpayable",
      "type": "function"
    },
    {
      "inputs": [
        {
          "internalType": "address",
          "name": "pubAddr",
          "type": "address"
        }
      ],
      "name": "unsubscribe",
      "outputs": [],
      "stateMutability": "nonpayable",
      "type": "function"
    },
    {
      "inputs": [
        {
          "internalType": "address",
          "name": "pubAddr",
          "type": "address"
        },
        {
          "internalType": "uint256",
          "name": "pubItemNum",
          "type": "uint256"
        },
        {
          "internalType": "enum FeedSubscriber.Rating",
          "name": "rating",
          "type": "uint8"
        }
      ],
      "name": "react",
      "outputs": [],
      "stateMutability": "nonpayable",
      "type": "function"
    },
    {
      "inputs": [
        {
          "internalType": "address",
          "name": "pubAddr",
          "type": "address"
        },
        {
          "internalType": "uint256",
          "name": "pubItemNum",
          "type": "uint256"
        }
      ],
      "name": "unreact",
      "outputs": [],
      "stateMutability": "nonpayable",
      "type": "function"
    },
    {
      "inputs": [],
      "name": "getSubscriptions",
      "outputs": [
        {
          "components": [
            {
              "internalType": "address",
              "name": "pubAddress",
              "type": "address"
            },
            {
              "internalType": "uint256",
              "name": "timestamp",
              "type": "uint256"
            }
          ],
          "internalType": "struct FeedSubscriber.Subscription[]",
          "name": "",
          "type": "tuple[]"
        }
      ],
      "stateMutability": "view",
      "type": "function"
    },
    {
      "inputs": [],
      "name": "getReactions",
      "outputs": [
        {
          "components": [
            {
              "internalType": "address",
              "name": "pubAddress",
              "type": "address"
            },
            {
              "internalType": "uint256",
              "name": "pubItemNum",
              "type": "uint256"
            },
            {
              "internalType": "enum FeedSubscriber.Rating",
              "name": "rating",
              "type": "uint8"
            },
            {
              "internalType": "uint256",
              "name": "timestamp",
              "type": "uint256"
            }
          ],
          "internalType": "struct FeedSubscriber.Reaction[]",
          "name": "",
          "type": "tuple[]"
        }
      ],
      "stateMutability": "view",
      "type": "function"
    }
  ],
  "bytecode": "0x608060405234801561001057600080fd5b50336000806101000a81548173ffffffffffffffffffffffffffffffffffffffff021916908373ffffffffffffffffffffffffffffffffffffffff160217905550611bdd806100606000396000f3fe608060405234801561001057600080fd5b50600436106100885760003560e01c80637262561c1161005b5780637262561c146101015780637358152a1461011d5780638b46a2b4146101395780638da5cb5b1461015557610088565b80630472f4181461008d57806313af4035146100ab5780633b47a9ac146100c757806341a7726a146100e5575b600080fd5b610095610173565b6040516100a291906115c8565b60405180910390f35b6100c560048036038101906100c0919061161b565b610277565b005b6100cf610348565b6040516100dc9190611726565b60405180910390f35b6100ff60048036038101906100fa919061161b565b610407565b005b61011b6004803603810190610116919061161b565b6106dd565b005b61013760048036038101906101329190611774565b610a5d565b005b610153600480360381019061014e91906117d9565b610e8f565b005b61015d611207565b60405161016a919061183b565b60405180910390f35b60606003805480602002602001604051908101604052809291908181526020016000905b8282101561026e57838290600052602060002090600402016040518060800160405290816000820160009054906101000a900473ffffffffffffffffffffffffffffffffffffffff1673ffffffffffffffffffffffffffffffffffffffff1673ffffffffffffffffffffffffffffffffffffffff168152602001600182015481526020016002820160009054906101000a900460ff16600181111561023f5761023e611479565b5b600181111561025157610250611479565b5b815260200160038201548152505081526020019060010190610197565b50505050905090565b3373ffffffffffffffffffffffffffffffffffffffff1660008054906101000a900473ffffffffffffffffffffffffffffffffffffffff1673ffffffffffffffffffffffffffffffffffffffff1614610305576040517f08c379a00000000000000000000000000000000000000000000000000000000081526004016102fc906118d9565b60405180910390fd5b806000806101000a81548173ffffffffffffffffffffffffffffffffffffffff021916908373ffffffffffffffffffffffffffffffffffffffff16021790555050565b60606001805480602002602001604051908101604052809291908181526020016000905b828210156103fe57838290600052602060002090600202016040518060400160405290816000820160009054906101000a900473ffffffffffffffffffffffffffffffffffffffff1673ffffffffffffffffffffffffffffffffffffffff1673ffffffffffffffffffffffffffffffffffffffff1681526020016001820154815250508152602001906001019061036c565b50505050905090565b3373ffffffffffffffffffffffffffffffffffffffff1660008054906101000a900473ffffffffffffffffffffffffffffffffffffffff1673ffffffffffffffffffffffffffffffffffffffff1614610495576040517f08c379a000000000000000000000000000000000000000000000000000000000815260040161048c906118d9565b60405180910390fd5b600060405180604001604052808373ffffffffffffffffffffffffffffffffffffffff16815260200142815250905060006104cf83611230565b90506000600260008373ffffffffffffffffffffffffffffffffffffffff1673ffffffffffffffffffffffffffffffffffffffff16815260200190815260200160002054905060008111156105a557826001808361052d9190611928565b8154811061053e5761053d61195c565b5b906000526020600020906002020160008201518160000160006101000a81548173ffffffffffffffffffffffffffffffffffffffff021916908373ffffffffffffffffffffffffffffffffffffffff16021790555060208201518160010155905050610671565b600183908060018154018082558091505060019003906000526020600020906002020160009091909190915060008201518160000160006101000a81548173ffffffffffffffffffffffffffffffffffffffff021916908373ffffffffffffffffffffffffffffffffffffffff160217905550602082015181600101555050600180549050905080600260008473ffffffffffffffffffffffffffffffffffffffff1673ffffffffffffffffffffffffffffffffffffffff168152602001908152602001600020819055505b610694604051806060016040528060308152602001611aee603091393386611242565b8373ffffffffffffffffffffffffffffffffffffffff167f6ff6eaed699c246ce4a81c625294e51377e7c325c1c73e5bfa3b44be72806d0260405160405180910390a250505050565b3373ffffffffffffffffffffffffffffffffffffffff1660008054906101000a900473ffffffffffffffffffffffffffffffffffffffff1673ffffffffffffffffffffffffffffffffffffffff161461076b576040517f08c379a0000000000000000000000000000000000000000000000000000000008152600401610762906118d9565b60405180910390fd5b600061077682611230565b90506000600260008373ffffffffffffffffffffffffffffffffffffffff1673ffffffffffffffffffffffffffffffffffffffff168152602001908152602001600020549050600081036107cb575050610a5a565b6000600260008473ffffffffffffffffffffffffffffffffffffffff1673ffffffffffffffffffffffffffffffffffffffff1681526020019081526020016000208190555060018080549050111561099757600060018080805490506108319190611928565b815481106108425761084161195c565b5b90600052602060002090600202016040518060400160405290816000820160009054906101000a900473ffffffffffffffffffffffffffffffffffffffff1673ffffffffffffffffffffffffffffffffffffffff1673ffffffffffffffffffffffffffffffffffffffff168152602001600182015481525050905060006108cc8260000151611230565b905081600180856108dd9190611928565b815481106108ee576108ed61195c565b5b906000526020600020906002020160008201518160000160006101000a81548173ffffffffffffffffffffffffffffffffffffffff021916908373ffffffffffffffffffffffffffffffffffffffff1602179055506020820151816001015590505082600260008373ffffffffffffffffffffffffffffffffffffffff1673ffffffffffffffffffffffffffffffffffffffff1681526020019081526020016000208190555050505b60018054806109a9576109a861198b565b5b6001900381819060005260206000209060020201600080820160006101000a81549073ffffffffffffffffffffffffffffffffffffffff0219169055600182016000905550509055610a14604051806060016040528060308152602001611b78603091393385611242565b8273ffffffffffffffffffffffffffffffffffffffff167fd4da1c95251a1c543838518bae8531facb525bc74cf1ac0ed8fb308479958c2e60405160405180910390a250505b50565b3373ffffffffffffffffffffffffffffffffffffffff1660008054906101000a900473ffffffffffffffffffffffffffffffffffffffff1673ffffffffffffffffffffffffffffffffffffffff1614610aeb576040517f08c379a0000000000000000000000000000000000000000000000000000000008152600401610ae2906118d9565b60405180910390fd5b6000610af783836112e1565b90506000600460008373ffffffffffffffffffffffffffffffffffffffff1673ffffffffffffffffffffffffffffffffffffffff16815260200190815260200160002054905060008103610b4c575050610e8b565b6000600460008473ffffffffffffffffffffffffffffffffffffffff1673ffffffffffffffffffffffffffffffffffffffff1681526020019081526020016000208190555060016003805490501115610da057600060036001600380549050610bb59190611928565b81548110610bc657610bc561195c565b5b90600052602060002090600402016040518060800160405290816000820160009054906101000a900473ffffffffffffffffffffffffffffffffffffffff1673ffffffffffffffffffffffffffffffffffffffff1673ffffffffffffffffffffffffffffffffffffffff168152602001600182015481526020016002820160009054906101000a900460ff166001811115610c6457610c63611479565b5b6001811115610c7657610c75611479565b5b815260200160038201548152505090506000610c9a826000015183602001516112e1565b9050816003600185610cac9190611928565b81548110610cbd57610cbc61195c565b5b906000526020600020906004020160008201518160000160006101000a81548173ffffffffffffffffffffffffffffffffffffffff021916908373ffffffffffffffffffffffffffffffffffffffff1602179055506020820151816001015560408201518160020160006101000a81548160ff02191690836001811115610d4757610d46611479565b5b02179055506060820151816003015590505082600460008373ffffffffffffffffffffffffffffffffffffffff1673ffffffffffffffffffffffffffffffffffffffff1681526020019081526020016000208190555050505b6003805480610db257610db161198b565b5b6001900381819060005260206000209060040201600080820160006101000a81549073ffffffffffffffffffffffffffffffffffffffff021916905560018201600090556002820160006101000a81549060ff0219169055600382016000905550509055610e3a6040518060600160405280602d8152602001611b4b602d9139338686611318565b8373ffffffffffffffffffffffffffffffffffffffff167f8f22061a7389d6620c735385174537c8baaf1439735a4a569906d00f95c0458184604051610e8091906119c9565b60405180910390a250505b5050565b3373ffffffffffffffffffffffffffffffffffffffff1660008054906101000a900473ffffffffffffffffffffffffffffffffffffffff1673ffffffffffffffffffffffffffffffffffffffff1614610f1d576040517f08c379a0000000000000000000000000000000000000000000000000000000008152600401610f14906118d9565b60405180910390fd5b600060405180608001604052808573ffffffffffffffffffffffffffffffffffffffff168152602001848152602001836001811115610f5f57610f5e611479565b5b81526020014281525090506000610f7685856112e1565b90506000600460008373ffffffffffffffffffffffffffffffffffffffff1673ffffffffffffffffffffffffffffffffffffffff168152602001908152602001600020549050600081111561108757826003600183610fd59190611928565b81548110610fe657610fe561195c565b5b906000526020600020906004020160008201518160000160006101000a81548173ffffffffffffffffffffffffffffffffffffffff021916908373ffffffffffffffffffffffffffffffffffffffff1602179055506020820151816001015560408201518160020160006101000a81548160ff021916908360018111156110705761106f611479565b5b02179055506060820151816003015590505061118d565b600383908060018154018082558091505060019003906000526020600020906004020160009091909190915060008201518160000160006101000a81548173ffffffffffffffffffffffffffffffffffffffff021916908373ffffffffffffffffffffffffffffffffffffffff1602179055506020820151816001015560408201518160020160006101000a81548160ff0219169083600181111561112f5761112e611479565b5b0217905550606082015181600301555050600380549050905080600460008473ffffffffffffffffffffffffffffffffffffffff1673ffffffffffffffffffffffffffffffffffffffff168152602001908152602001600020819055505b6111b16040518060600160405280602d8152602001611b1e602d9139338888611318565b8573ffffffffffffffffffffffffffffffffffffffff167f66ddc840fe0c0e2d79e178ffe79c6ede8c6fcf1c61cf1edb4adb1d1e40ee3278866040516111f791906119c9565b60405180910390a2505050505050565b60008060009054906101000a900473ffffffffffffffffffffffffffffffffffffffff16905090565b600061123b826113ba565b9050919050565b6112dc83838360405160240161125a93929190611a63565b6040516020818303038152906040527ffcec75e0000000000000000000000000000000000000000000000000000000007bffffffffffffffffffffffffffffffffffffffffffffffffffffffff19166020820180517bffffffffffffffffffffffffffffffffffffffffffffffffffffffff83818316178352505050506113c4565b505050565b60006112ec826113e9565b60106112f7856113ba565b73ffffffffffffffffffffffffffffffffffffffff16901b17905092915050565b6113b4848484846040516024016113329493929190611aa1565b6040516020818303038152906040527f8ef3f399000000000000000000000000000000000000000000000000000000007bffffffffffffffffffffffffffffffffffffffffffffffffffffffff19166020820180517bffffffffffffffffffffffffffffffffffffffffffffffffffffffff83818316178352505050506113c4565b50505050565b6000819050919050565b60006a636f6e736f6c652e6c6f6790508151602083016000808383865afa5050505050565b6000819050919050565b600081519050919050565b600082825260208201905092915050565b6000819050602082019050919050565b600073ffffffffffffffffffffffffffffffffffffffff82169050919050565b600061144a8261141f565b9050919050565b61145a8161143f565b82525050565b6000819050919050565b61147381611460565b82525050565b7f4e487b7100000000000000000000000000000000000000000000000000000000600052602160045260246000fd5b600281106114b9576114b8611479565b5b50565b60008190506114ca826114a8565b919050565b60006114da826114bc565b9050919050565b6114ea816114cf565b82525050565b6080820160008201516115066000850182611451565b506020820151611519602085018261146a565b50604082015161152c60408501826114e1565b50606082015161153f606085018261146a565b50505050565b600061155183836114f0565b60808301905092915050565b6000602082019050919050565b6000611575826113f3565b61157f81856113fe565b935061158a8361140f565b8060005b838110156115bb5781516115a28882611545565b97506115ad8361155d565b92505060018101905061158e565b5085935050505092915050565b600060208201905081810360008301526115e2818461156a565b905092915050565b600080fd5b6115f88161143f565b811461160357600080fd5b50565b600081359050611615816115ef565b92915050565b600060208284031215611631576116306115ea565b5b600061163f84828501611606565b91505092915050565b600081519050919050565b600082825260208201905092915050565b6000819050602082019050919050565b60408201600082015161168a6000850182611451565b50602082015161169d602085018261146a565b50505050565b60006116af8383611674565b60408301905092915050565b6000602082019050919050565b60006116d382611648565b6116dd8185611653565b93506116e883611664565b8060005b8381101561171957815161170088826116a3565b975061170b836116bb565b9250506001810190506116ec565b5085935050505092915050565b6000602082019050818103600083015261174081846116c8565b905092915050565b61175181611460565b811461175c57600080fd5b50565b60008135905061176e81611748565b92915050565b6000806040838503121561178b5761178a6115ea565b5b600061179985828601611606565b92505060206117aa8582860161175f565b9150509250929050565b600281106117c157600080fd5b50565b6000813590506117d3816117b4565b92915050565b6000806000606084860312156117f2576117f16115ea565b5b600061180086828701611606565b93505060206118118682870161175f565b9250506040611822868287016117c4565b9150509250925092565b6118358161143f565b82525050565b6000602082019050611850600083018461182c565b92915050565b600082825260208201905092915050565b7f43616c6c6572206f66207468652066756e6374696f6e206973206e6f7420746860008201527f65206f776e657221000000000000000000000000000000000000000000000000602082015250565b60006118c3602883611856565b91506118ce82611867565b604082019050919050565b600060208201905081810360008301526118f2816118b6565b9050919050565b7f4e487b7100000000000000000000000000000000000000000000000000000000600052601160045260246000fd5b600061193382611460565b915061193e83611460565b9250828203905081811115611956576119556118f9565b5b92915050565b7f4e487b7100000000000000000000000000000000000000000000000000000000600052603260045260246000fd5b7f4e487b7100000000000000000000000000000000000000000000000000000000600052603160045260246000fd5b6119c381611460565b82525050565b60006020820190506119de60008301846119ba565b92915050565b600081519050919050565b60005b83811015611a0d5780820151818401526020810190506119f2565b60008484015250505050565b6000601f19601f8301169050919050565b6000611a35826119e4565b611a3f8185611856565b9350611a4f8185602086016119ef565b611a5881611a19565b840191505092915050565b60006060820190508181036000830152611a7d8186611a2a565b9050611a8c602083018561182c565b611a99604083018461182c565b949350505050565b60006080820190508181036000830152611abb8187611a2a565b9050611aca602083018661182c565b611ad7604083018561182c565b611ae460608301846119ba565b9594505050505056fe4163636f756e74202573206372656174656420737562736372697074696f6e206f6e207075626c69736865722025732e4163636f756e742025732063726561746564207265616374696f6e206f6e20707562206974656d2025732f25644163636f756e742025732072656d6f766564207265616374696f6e206f6e20707562206974656d2025732f25644163636f756e742025732072656d6f76656420737562736372697074696f6e206f6e207075626c69736865722025732ea264697066735822122011f400d22a6f3107ded0c7edd411c206ffc1c361564cf48620f9bc5fa842fd8664736f6c63430008130033",
  "immutableReferences": {},
  "source": "// SPDX-License-Identifier: UNLICENSED\n\npragma solidity ^0.8.12;\n\nimport \"@ganache/console.log/console.sol\";\n\nimport \"./Ownable.sol\";\n\ncontract FeedSubscriber is Ownable {\n\n    event CreateSubscription(address indexed pubAddress);\n    event RemoveSubscription(address indexed pubAddress);\n\n    event CreateReaction(address indexed pubAddress, uint _pubItemNum);\n    event RemoveReaction(address indexed pubAddress, uint _pubItemNum);\n\n    struct Subscription {\n        address pubAddress;\n        uint timestamp;\n    }\n\n    struct Reaction {\n        address pubAddress;\n        uint pubItemNum;\n        Rating rating;\n        uint timestamp;\n    }\n    \n    enum Rating {\n        Liked,   // 0\n        Disliked // 1\n    }\n\n    // Array to store subscriptions\n    Subscription[] private _subs;\n    // Mapping to find subscriptions faster\n    // Key: uint('pub addr')\n    mapping (uint160 => uint) private _subRefs;\n\n    // Array to store reactions\n    Reaction[] private _reacts;\n    // Mapping to find reactions faster\n    // Key: Bitwise OR of uint('pub addr') and uint('pub item num')\n    mapping (uint160 => uint) private _reactRefs;\n\n    constructor() {\n        \n    }\n\n    function subscribe(address pubAddr) public onlyOwner {\n        Subscription memory sub = Subscription(pubAddr, block.timestamp);\n\n        // Calculate key\n        uint160 subKey = calcSubscriptionKey(pubAddr);\n        // Get reference\n        uint subRef = _subRefs[subKey];\n\n        // Does item already exists?\n        if (subRef > 0) {\n            // Update item\n            _subs[subRef-1] = sub;\n        } else {\n            // Store item\n            _subs.push(sub);\n            // Store item reference\n            subRef = _subs.length;\n            _subRefs[subKey] = subRef;\n        }\n\n        console.log(\"Account %s created subscription on publisher %s.\", msg.sender, pubAddr);\n\n        emit CreateSubscription(pubAddr);\n    }\n\n    function unsubscribe(address pubAddr) public onlyOwner {\n        // Calculate key\n        uint160 subKey = calcSubscriptionKey(pubAddr);\n        // Get reference\n        uint subRef = _subRefs[subKey];\n\n        // If item was not found: Abort\n        if (subRef == 0) {\n            return;\n        }\n\n        // Reset item reference\n        _subRefs[subKey] = 0;\n\n        // If items exists: Reorganize items\n        if (_subs.length > 1) {\n            Subscription memory movSub = _subs[_subs.length-1];\n            uint160 movSubKey = calcSubscriptionKey(movSub.pubAddress);\n            _subs[subRef-1] = movSub;\n            _subRefs[movSubKey] = subRef;\n        }\n\n        // Remove last item\n        _subs.pop();\n\n        console.log(\"Account %s removed subscription on publisher %s.\", msg.sender, pubAddr);\n\n        emit RemoveSubscription(pubAddr);\n    }\n\n    function react(address pubAddr, uint pubItemNum, Rating rating) public onlyOwner {\n        Reaction memory rea = Reaction(pubAddr, pubItemNum, rating, block.timestamp);\n\n        // Calculate key\n        uint160 reaKey = calcReactionKey(pubAddr, pubItemNum);\n        // Get reference\n        uint reaRef = _reactRefs[reaKey];\n\n        // Does item already exists?\n        if (reaRef > 0) {\n            // Update item\n            _reacts[reaRef-1] = rea;\n        } else {\n            // Store item\n            _reacts.push(rea);\n            // Store item reference\n            reaRef = _reacts.length;\n            _reactRefs[reaKey] = reaRef;\n        }\n\n        console.log(\"Account %s created reaction on pub item %s/%d\", msg.sender, pubAddr, pubItemNum);\n\n        emit CreateReaction(pubAddr, pubItemNum);\n    }\n\n    function unreact(address pubAddr, uint pubItemNum) public onlyOwner {\n        // Calculate key\n        uint160 reaKey = calcReactionKey(pubAddr, pubItemNum);\n        // Get reference\n        uint reaRef = _reactRefs[reaKey];\n\n        // If item was not found: Abort\n        if (reaRef == 0) {\n            return;\n        }\n\n        // Reset item reference\n        _reactRefs[reaKey] = 0;\n\n        // If items exists: Reorganize items\n        if (_reacts.length > 1) {\n            Reaction memory movRea = _reacts[_reacts.length-1];\n            uint160 movReaKey = calcReactionKey(movRea.pubAddress, movRea.pubItemNum);\n            _reacts[reaRef-1] = movRea;\n            _reactRefs[movReaKey] = reaRef;\n        }\n\n        // Remove last item\n        _reacts.pop();\n\n        console.log(\"Account %s removed reaction on pub item %s/%d\", msg.sender, pubAddr, pubItemNum);\n\n        emit RemoveReaction(pubAddr, pubItemNum);\n    }\n\n    function getSubscriptions() public view returns (Subscription[] memory) {\n        return _subs;\n    }\n\n    function getReactions() public view returns (Reaction[] memory) {\n        return _reacts;\n    }\n\n    function calcSubscriptionKey(address pubAddr) internal pure returns (uint160) {\n        return createAddrKey(pubAddr);\n    }\n\n    function calcReactionKey(address pubAddr, uint pubItemNum) internal pure returns (uint160) {\n        return createAddrKey(pubAddr) << 16 | createNumKey(pubItemNum);\n    }\n\n    function createAddrKey(address addr) internal pure returns (uint160) {\n        return uint160(addr);\n    }\n\n    function createNumKey(uint num) internal pure returns (uint160) {\n        return uint160(num);\n    }\n\n}\n",
  "sourcePath": "/home/matthias/ethereum/test/contracts/FeedSubscriber.sol",
  "compiler": {
    "name": "solc",
    "version": "0.8.19+commit.7dd6d404.Emscripten.clang"
  },
  "schemaVersion": "3.4.13",
  "updatedAt": "2023-04-15T23:51:59.030Z",
  "devdoc": {
    "kind": "dev",
    "methods": {},
    "version": 1
  },
  "userdoc": {
    "kind": "user",
    "methods": {},
    "version": 1
  }
}