{
  "_format": "hh-sol-artifact-1",
  "contractName": "FeedSubscriber",
  "sourceName": "contracts/FeedSubscriber.sol",
  "abi": [
    {
      "inputs": [],
      "stateMutability": "nonpayable",
      "type": "constructor"
    },
    {
      "anonymous": false,
      "inputs": [
        {
          "indexed": true,
          "internalType": "address",
          "name": "pubAddress",
          "type": "address"
        },
        {
          "indexed": false,
          "internalType": "uint256",
          "name": "_pubItemNum",
          "type": "uint256"
        }
      ],
      "name": "CreateReaction",
      "type": "event"
    },
    {
      "anonymous": false,
      "inputs": [
        {
          "indexed": true,
          "internalType": "address",
          "name": "pubAddress",
          "type": "address"
        }
      ],
      "name": "CreateSubscription",
      "type": "event"
    },
    {
      "anonymous": false,
      "inputs": [
        {
          "indexed": true,
          "internalType": "address",
          "name": "pubAddress",
          "type": "address"
        },
        {
          "indexed": false,
          "internalType": "uint256",
          "name": "_pubItemNum",
          "type": "uint256"
        }
      ],
      "name": "RemoveReaction",
      "type": "event"
    },
    {
      "anonymous": false,
      "inputs": [
        {
          "indexed": true,
          "internalType": "address",
          "name": "pubAddress",
          "type": "address"
        }
      ],
      "name": "RemoveSubscription",
      "type": "event"
    },
    {
      "inputs": [],
      "name": "getReactions",
      "outputs": [
        {
          "components": [
            {
              "internalType": "address",
              "name": "pubAddress",
              "type": "address"
            },
            {
              "internalType": "uint256",
              "name": "pubItemNum",
              "type": "uint256"
            },
            {
              "internalType": "enum FeedSubscriber.Rating",
              "name": "rating",
              "type": "uint8"
            },
            {
              "internalType": "uint256",
              "name": "timestamp",
              "type": "uint256"
            }
          ],
          "internalType": "struct FeedSubscriber.Reaction[]",
          "name": "",
          "type": "tuple[]"
        }
      ],
      "stateMutability": "view",
      "type": "function"
    },
    {
      "inputs": [],
      "name": "getSubscriptions",
      "outputs": [
        {
          "components": [
            {
              "internalType": "address",
              "name": "pubAddress",
              "type": "address"
            },
            {
              "internalType": "uint256",
              "name": "timestamp",
              "type": "uint256"
            }
          ],
          "internalType": "struct FeedSubscriber.Subscription[]",
          "name": "",
          "type": "tuple[]"
        }
      ],
      "stateMutability": "view",
      "type": "function"
    },
    {
      "inputs": [],
      "name": "owner",
      "outputs": [
        {
          "internalType": "address",
          "name": "",
          "type": "address"
        }
      ],
      "stateMutability": "view",
      "type": "function"
    },
    {
      "inputs": [
        {
          "internalType": "address",
          "name": "pubAddr",
          "type": "address"
        },
        {
          "internalType": "uint256",
          "name": "pubItemNum",
          "type": "uint256"
        },
        {
          "internalType": "enum FeedSubscriber.Rating",
          "name": "rating",
          "type": "uint8"
        }
      ],
      "name": "react",
      "outputs": [],
      "stateMutability": "nonpayable",
      "type": "function"
    },
    {
      "inputs": [
        {
          "internalType": "address",
          "name": "_newOwner",
          "type": "address"
        }
      ],
      "name": "setOwner",
      "outputs": [],
      "stateMutability": "nonpayable",
      "type": "function"
    },
    {
      "inputs": [
        {
          "internalType": "address",
          "name": "pubAddr",
          "type": "address"
        }
      ],
      "name": "subscribe",
      "outputs": [],
      "stateMutability": "nonpayable",
      "type": "function"
    },
    {
      "inputs": [
        {
          "internalType": "address",
          "name": "pubAddr",
          "type": "address"
        },
        {
          "internalType": "uint256",
          "name": "pubItemNum",
          "type": "uint256"
        }
      ],
      "name": "unreact",
      "outputs": [],
      "stateMutability": "nonpayable",
      "type": "function"
    },
    {
      "inputs": [
        {
          "internalType": "address",
          "name": "pubAddr",
          "type": "address"
        }
      ],
      "name": "unsubscribe",
      "outputs": [],
      "stateMutability": "nonpayable",
      "type": "function"
    }
  ],
  "bytecode": "0x608060405234801561001057600080fd5b50336000806101000a81548173ffffffffffffffffffffffffffffffffffffffff021916908373ffffffffffffffffffffffffffffffffffffffff160217905550611bec806100606000396000f3fe608060405234801561001057600080fd5b50600436106100885760003560e01c80637262561c1161005b5780637262561c146101015780637358152a1461011d5780638b46a2b4146101395780638da5cb5b1461015557610088565b80630472f4181461008d57806313af4035146100ab5780633b47a9ac146100c757806341a7726a146100e5575b600080fd5b610095610173565b6040516100a291906115ce565b60405180910390f35b6100c560048036038101906100c09190611621565b610277565b005b6100cf610348565b6040516100dc919061172c565b60405180910390f35b6100ff60048036038101906100fa9190611621565b610407565b005b61011b60048036038101906101169190611621565b6106dd565b005b6101376004803603810190610132919061177a565b610a5e565b005b610153600480360381019061014e91906117df565b610e91565b005b61015d611209565b60405161016a9190611841565b60405180910390f35b60606003805480602002602001604051908101604052809291908181526020016000905b8282101561026e57838290600052602060002090600402016040518060800160405290816000820160009054906101000a900473ffffffffffffffffffffffffffffffffffffffff1673ffffffffffffffffffffffffffffffffffffffff1673ffffffffffffffffffffffffffffffffffffffff168152602001600182015481526020016002820160009054906101000a900460ff16600181111561023f5761023e61147f565b5b60018111156102515761025061147f565b5b815260200160038201548152505081526020019060010190610197565b50505050905090565b3373ffffffffffffffffffffffffffffffffffffffff1660008054906101000a900473ffffffffffffffffffffffffffffffffffffffff1673ffffffffffffffffffffffffffffffffffffffff1614610305576040517f08c379a00000000000000000000000000000000000000000000000000000000081526004016102fc906118df565b60405180910390fd5b806000806101000a81548173ffffffffffffffffffffffffffffffffffffffff021916908373ffffffffffffffffffffffffffffffffffffffff16021790555050565b60606001805480602002602001604051908101604052809291908181526020016000905b828210156103fe57838290600052602060002090600202016040518060400160405290816000820160009054906101000a900473ffffffffffffffffffffffffffffffffffffffff1673ffffffffffffffffffffffffffffffffffffffff1673ffffffffffffffffffffffffffffffffffffffff1681526020016001820154815250508152602001906001019061036c565b50505050905090565b3373ffffffffffffffffffffffffffffffffffffffff1660008054906101000a900473ffffffffffffffffffffffffffffffffffffffff1673ffffffffffffffffffffffffffffffffffffffff1614610495576040517f08c379a000000000000000000000000000000000000000000000000000000000815260040161048c906118df565b60405180910390fd5b600060405180604001604052808373ffffffffffffffffffffffffffffffffffffffff16815260200142815250905060006104cf83611232565b90506000600260008373ffffffffffffffffffffffffffffffffffffffff1673ffffffffffffffffffffffffffffffffffffffff16815260200190815260200160002054905060008111156105a557826001808361052d919061192e565b8154811061053e5761053d611962565b5b906000526020600020906002020160008201518160000160006101000a81548173ffffffffffffffffffffffffffffffffffffffff021916908373ffffffffffffffffffffffffffffffffffffffff16021790555060208201518160010155905050610671565b600183908060018154018082558091505060019003906000526020600020906002020160009091909190915060008201518160000160006101000a81548173ffffffffffffffffffffffffffffffffffffffff021916908373ffffffffffffffffffffffffffffffffffffffff160217905550602082015181600101555050600180549050905080600260008473ffffffffffffffffffffffffffffffffffffffff1673ffffffffffffffffffffffffffffffffffffffff168152602001908152602001600020819055505b610694604051806060016040528060308152602001611afd603091393386611244565b8373ffffffffffffffffffffffffffffffffffffffff167f6ff6eaed699c246ce4a81c625294e51377e7c325c1c73e5bfa3b44be72806d0260405160405180910390a250505050565b3373ffffffffffffffffffffffffffffffffffffffff1660008054906101000a900473ffffffffffffffffffffffffffffffffffffffff1673ffffffffffffffffffffffffffffffffffffffff161461076b576040517f08c379a0000000000000000000000000000000000000000000000000000000008152600401610762906118df565b60405180910390fd5b600061077682611232565b90506000600260008373ffffffffffffffffffffffffffffffffffffffff1673ffffffffffffffffffffffffffffffffffffffff16815260200190815260200160002054905060008114156107cc575050610a5b565b6000600260008473ffffffffffffffffffffffffffffffffffffffff1673ffffffffffffffffffffffffffffffffffffffff168152602001908152602001600020819055506001808054905011156109985760006001808080549050610832919061192e565b8154811061084357610842611962565b5b90600052602060002090600202016040518060400160405290816000820160009054906101000a900473ffffffffffffffffffffffffffffffffffffffff1673ffffffffffffffffffffffffffffffffffffffff1673ffffffffffffffffffffffffffffffffffffffff168152602001600182015481525050905060006108cd8260000151611232565b905081600180856108de919061192e565b815481106108ef576108ee611962565b5b906000526020600020906002020160008201518160000160006101000a81548173ffffffffffffffffffffffffffffffffffffffff021916908373ffffffffffffffffffffffffffffffffffffffff1602179055506020820151816001015590505082600260008373ffffffffffffffffffffffffffffffffffffffff1673ffffffffffffffffffffffffffffffffffffffff1681526020019081526020016000208190555050505b60018054806109aa576109a9611991565b5b6001900381819060005260206000209060020201600080820160006101000a81549073ffffffffffffffffffffffffffffffffffffffff0219169055600182016000905550509055610a15604051806060016040528060308152602001611b87603091393385611244565b8273ffffffffffffffffffffffffffffffffffffffff167fd4da1c95251a1c543838518bae8531facb525bc74cf1ac0ed8fb308479958c2e60405160405180910390a250505b50565b3373ffffffffffffffffffffffffffffffffffffffff1660008054906101000a900473ffffffffffffffffffffffffffffffffffffffff1673ffffffffffffffffffffffffffffffffffffffff1614610aec576040517f08c379a0000000000000000000000000000000000000000000000000000000008152600401610ae3906118df565b60405180910390fd5b6000610af883836112e3565b90506000600460008373ffffffffffffffffffffffffffffffffffffffff1673ffffffffffffffffffffffffffffffffffffffff1681526020019081526020016000205490506000811415610b4e575050610e8d565b6000600460008473ffffffffffffffffffffffffffffffffffffffff1673ffffffffffffffffffffffffffffffffffffffff1681526020019081526020016000208190555060016003805490501115610da257600060036001600380549050610bb7919061192e565b81548110610bc857610bc7611962565b5b90600052602060002090600402016040518060800160405290816000820160009054906101000a900473ffffffffffffffffffffffffffffffffffffffff1673ffffffffffffffffffffffffffffffffffffffff1673ffffffffffffffffffffffffffffffffffffffff168152602001600182015481526020016002820160009054906101000a900460ff166001811115610c6657610c6561147f565b5b6001811115610c7857610c7761147f565b5b815260200160038201548152505090506000610c9c826000015183602001516112e3565b9050816003600185610cae919061192e565b81548110610cbf57610cbe611962565b5b906000526020600020906004020160008201518160000160006101000a81548173ffffffffffffffffffffffffffffffffffffffff021916908373ffffffffffffffffffffffffffffffffffffffff1602179055506020820151816001015560408201518160020160006101000a81548160ff02191690836001811115610d4957610d4861147f565b5b02179055506060820151816003015590505082600460008373ffffffffffffffffffffffffffffffffffffffff1673ffffffffffffffffffffffffffffffffffffffff1681526020019081526020016000208190555050505b6003805480610db457610db3611991565b5b6001900381819060005260206000209060040201600080820160006101000a81549073ffffffffffffffffffffffffffffffffffffffff021916905560018201600090556002820160006101000a81549060ff0219169055600382016000905550509055610e3c6040518060600160405280602d8152602001611b5a602d913933868661131a565b8373ffffffffffffffffffffffffffffffffffffffff167f8f22061a7389d6620c735385174537c8baaf1439735a4a569906d00f95c0458184604051610e8291906119cf565b60405180910390a250505b5050565b3373ffffffffffffffffffffffffffffffffffffffff1660008054906101000a900473ffffffffffffffffffffffffffffffffffffffff1673ffffffffffffffffffffffffffffffffffffffff1614610f1f576040517f08c379a0000000000000000000000000000000000000000000000000000000008152600401610f16906118df565b60405180910390fd5b600060405180608001604052808573ffffffffffffffffffffffffffffffffffffffff168152602001848152602001836001811115610f6157610f6061147f565b5b81526020014281525090506000610f7885856112e3565b90506000600460008373ffffffffffffffffffffffffffffffffffffffff1673ffffffffffffffffffffffffffffffffffffffff168152602001908152602001600020549050600081111561108957826003600183610fd7919061192e565b81548110610fe857610fe7611962565b5b906000526020600020906004020160008201518160000160006101000a81548173ffffffffffffffffffffffffffffffffffffffff021916908373ffffffffffffffffffffffffffffffffffffffff1602179055506020820151816001015560408201518160020160006101000a81548160ff021916908360018111156110725761107161147f565b5b02179055506060820151816003015590505061118f565b600383908060018154018082558091505060019003906000526020600020906004020160009091909190915060008201518160000160006101000a81548173ffffffffffffffffffffffffffffffffffffffff021916908373ffffffffffffffffffffffffffffffffffffffff1602179055506020820151816001015560408201518160020160006101000a81548160ff021916908360018111156111315761113061147f565b5b0217905550606082015181600301555050600380549050905080600460008473ffffffffffffffffffffffffffffffffffffffff1673ffffffffffffffffffffffffffffffffffffffff168152602001908152602001600020819055505b6111b36040518060600160405280602d8152602001611b2d602d913933888861131a565b8573ffffffffffffffffffffffffffffffffffffffff167f66ddc840fe0c0e2d79e178ffe79c6ede8c6fcf1c61cf1edb4adb1d1e40ee3278866040516111f991906119cf565b60405180910390a2505050505050565b60008060009054906101000a900473ffffffffffffffffffffffffffffffffffffffff16905090565b600061123d826113bc565b9050919050565b6112de83838360405160240161125c93929190611a72565b6040516020818303038152906040527ffcec75e0000000000000000000000000000000000000000000000000000000007bffffffffffffffffffffffffffffffffffffffffffffffffffffffff19166020820180517bffffffffffffffffffffffffffffffffffffffffffffffffffffffff83818316178352505050506113c6565b505050565b60006112ee826113ef565b60106112f9856113bc565b73ffffffffffffffffffffffffffffffffffffffff16901b17905092915050565b6113b6848484846040516024016113349493929190611ab0565b6040516020818303038152906040527f8ef3f399000000000000000000000000000000000000000000000000000000007bffffffffffffffffffffffffffffffffffffffffffffffffffffffff19166020820180517bffffffffffffffffffffffffffffffffffffffffffffffffffffffff83818316178352505050506113c6565b50505050565b6000819050919050565b60008151905060006a636f6e736f6c652e6c6f679050602083016000808483855afa5050505050565b6000819050919050565b600081519050919050565b600082825260208201905092915050565b6000819050602082019050919050565b600073ffffffffffffffffffffffffffffffffffffffff82169050919050565b600061145082611425565b9050919050565b61146081611445565b82525050565b6000819050919050565b61147981611466565b82525050565b7f4e487b7100000000000000000000000000000000000000000000000000000000600052602160045260246000fd5b600281106114bf576114be61147f565b5b50565b60008190506114d0826114ae565b919050565b60006114e0826114c2565b9050919050565b6114f0816114d5565b82525050565b60808201600082015161150c6000850182611457565b50602082015161151f6020850182611470565b50604082015161153260408501826114e7565b5060608201516115456060850182611470565b50505050565b600061155783836114f6565b60808301905092915050565b6000602082019050919050565b600061157b826113f9565b6115858185611404565b935061159083611415565b8060005b838110156115c15781516115a8888261154b565b97506115b383611563565b925050600181019050611594565b5085935050505092915050565b600060208201905081810360008301526115e88184611570565b905092915050565b600080fd5b6115fe81611445565b811461160957600080fd5b50565b60008135905061161b816115f5565b92915050565b600060208284031215611637576116366115f0565b5b60006116458482850161160c565b91505092915050565b600081519050919050565b600082825260208201905092915050565b6000819050602082019050919050565b6040820160008201516116906000850182611457565b5060208201516116a36020850182611470565b50505050565b60006116b5838361167a565b60408301905092915050565b6000602082019050919050565b60006116d98261164e565b6116e38185611659565b93506116ee8361166a565b8060005b8381101561171f57815161170688826116a9565b9750611711836116c1565b9250506001810190506116f2565b5085935050505092915050565b6000602082019050818103600083015261174681846116ce565b905092915050565b61175781611466565b811461176257600080fd5b50565b6000813590506117748161174e565b92915050565b60008060408385031215611791576117906115f0565b5b600061179f8582860161160c565b92505060206117b085828601611765565b9150509250929050565b600281106117c757600080fd5b50565b6000813590506117d9816117ba565b92915050565b6000806000606084860312156117f8576117f76115f0565b5b60006118068682870161160c565b935050602061181786828701611765565b9250506040611828868287016117ca565b9150509250925092565b61183b81611445565b82525050565b60006020820190506118566000830184611832565b92915050565b600082825260208201905092915050565b7f43616c6c6572206f66207468652066756e6374696f6e206973206e6f7420746860008201527f65206f776e657221000000000000000000000000000000000000000000000000602082015250565b60006118c960288361185c565b91506118d48261186d565b604082019050919050565b600060208201905081810360008301526118f8816118bc565b9050919050565b7f4e487b7100000000000000000000000000000000000000000000000000000000600052601160045260246000fd5b600061193982611466565b915061194483611466565b925082821015611957576119566118ff565b5b828203905092915050565b7f4e487b7100000000000000000000000000000000000000000000000000000000600052603260045260246000fd5b7f4e487b7100000000000000000000000000000000000000000000000000000000600052603160045260246000fd5b6119c981611466565b82525050565b60006020820190506119e460008301846119c0565b92915050565b600081519050919050565b60005b83811015611a135780820151818401526020810190506119f8565b83811115611a22576000848401525b50505050565b6000601f19601f8301169050919050565b6000611a44826119ea565b611a4e818561185c565b9350611a5e8185602086016119f5565b611a6781611a28565b840191505092915050565b60006060820190508181036000830152611a8c8186611a39565b9050611a9b6020830185611832565b611aa86040830184611832565b949350505050565b60006080820190508181036000830152611aca8187611a39565b9050611ad96020830186611832565b611ae66040830185611832565b611af360608301846119c0565b9594505050505056fe4163636f756e74202573206372656174656420737562736372697074696f6e206f6e207075626c69736865722025732e4163636f756e742025732063726561746564207265616374696f6e206f6e20707562206974656d2025732f25644163636f756e742025732072656d6f766564207265616374696f6e206f6e20707562206974656d2025732f25644163636f756e742025732072656d6f76656420737562736372697074696f6e206f6e207075626c69736865722025732ea2646970667358221220725695f8daf7de3ddfac3259ed93390f69d8e9e6b1e97d5229d7260234d77c6464736f6c634300080c0033",
  "linkReferences": {},
  "deployedLinkReferences": {}
}