{
  "contractName": "FeedRegistry",
  "abi": [
    {
      "inputs": [],
      "stateMutability": "nonpayable",
      "type": "constructor"
    },
    {
      "inputs": [
        {
          "internalType": "address",
          "name": "",
          "type": "address"
        }
      ],
      "name": "publisherContracts",
      "outputs": [
        {
          "internalType": "address",
          "name": "",
          "type": "address"
        }
      ],
      "stateMutability": "view",
      "type": "function",
      "constant": true
    },
    {
      "inputs": [
        {
          "internalType": "address",
          "name": "",
          "type": "address"
        }
      ],
      "name": "subscriberContracts",
      "outputs": [
        {
          "internalType": "address",
          "name": "",
          "type": "address"
        }
      ],
      "stateMutability": "view",
      "type": "function",
      "constant": true
    },
    {
      "inputs": [
        {
          "internalType": "string",
          "name": "feedUrl",
          "type": "string"
        }
      ],
      "name": "setupPublisher",
      "outputs": [],
      "stateMutability": "nonpayable",
      "type": "function"
    },
    {
      "inputs": [],
      "name": "getPublisherContract",
      "outputs": [
        {
          "internalType": "address",
          "name": "",
          "type": "address"
        }
      ],
      "stateMutability": "view",
      "type": "function",
      "constant": true
    },
    {
      "inputs": [],
      "name": "setupSubscriber",
      "outputs": [],
      "stateMutability": "nonpayable",
      "type": "function"
    },
    {
      "inputs": [],
      "name": "getSubscriberContract",
      "outputs": [
        {
          "internalType": "address",
          "name": "",
          "type": "address"
        }
      ],
      "stateMutability": "view",
      "type": "function",
      "constant": true
    },
    {
      "inputs": [
        {
          "internalType": "address",
          "name": "addr",
          "type": "address"
        }
      ],
      "name": "getSubscriberContractByAddress",
      "outputs": [
        {
          "internalType": "address",
          "name": "",
          "type": "address"
        }
      ],
      "stateMutability": "view",
      "type": "function",
      "constant": true
    }
  ],
  "bytecode": "0x608060405234801561001057600080fd5b5061003960405180606001604052806027815260200162003df86027913961003e60201b60201c565b6101b4565b6100da816040516024016100529190610192565b6040516020818303038152906040527f41304fac000000000000000000000000000000000000000000000000000000007bffffffffffffffffffffffffffffffffffffffffffffffffffffffff19166020820180517bffffffffffffffffffffffffffffffffffffffffffffffffffffffff83818316178352505050506100dd60201b60201c565b50565b60006a636f6e736f6c652e6c6f6790508151602083016000808383865afa5050505050565b600081519050919050565b600082825260208201905092915050565b60005b8381101561013c578082015181840152602081019050610121565b60008484015250505050565b6000601f19601f8301169050919050565b600061016482610102565b61016e818561010d565b935061017e81856020860161011e565b61018781610148565b840191505092915050565b600060208201905081810360008301526101ac8184610159565b905092915050565b613c3480620001c46000396000f3fe60806040523480156200001157600080fd5b5060043610620000885760003560e01c8063a4e52bd51162000063578063a4e52bd51462000119578063c2daf4bc146200013b578063e38bdd191462000147578063f6d4d0eb14620001695762000088565b806343fe3e16146200008d5780637eee4fb914620000c35780637fffcce514620000e3575b600080fd5b620000ab6004803603810190620000a5919062000820565b6200019f565b604051620000ba919062000863565b60405180910390f35b620000e16004803603810190620000db9190620009e2565b620001d2565b005b620001016004803603810190620000fb919062000820565b6200038d565b60405162000110919062000863565b60405180910390f35b6200012362000421565b60405162000132919062000863565b60405180910390f35b62000145620004b3565b005b62000151620005ff565b60405162000160919062000863565b60405180910390f35b62000187600480360381019062000181919062000820565b62000690565b60405162000196919062000863565b60405180910390f35b60006020528060005260406000206000915054906101000a900473ffffffffffffffffffffffffffffffffffffffff1681565b6000604051620001e2906200078b565b604051809103906000f080158015620001ff573d6000803e3d6000fd5b5090508073ffffffffffffffffffffffffffffffffffffffff166384b439c0836040518263ffffffff1660e01b81526004016200023d919062000abc565b600060405180830381600087803b1580156200025857600080fd5b505af11580156200026d573d6000803e3d6000fd5b505050508073ffffffffffffffffffffffffffffffffffffffff166313af4035336040518263ffffffff1660e01b8152600401620002ac919062000863565b600060405180830381600087803b158015620002c757600080fd5b505af1158015620002dc573d6000803e3d6000fd5b5050505060008190506200030b60405180606001604052806029815260200162003b8b602991393383620006c3565b806000803373ffffffffffffffffffffffffffffffffffffffff1673ffffffffffffffffffffffffffffffffffffffff16815260200190815260200160002060006101000a81548173ffffffffffffffffffffffffffffffffffffffff021916908373ffffffffffffffffffffffffffffffffffffffff160217905550505050565b600080600160008473ffffffffffffffffffffffffffffffffffffffff1673ffffffffffffffffffffffffffffffffffffffff16815260200190815260200160002060009054906101000a900473ffffffffffffffffffffffffffffffffffffffff1690506200041860405180606001604052806026815260200162003bb4602691393383620006c3565b80915050919050565b600080600160003373ffffffffffffffffffffffffffffffffffffffff1673ffffffffffffffffffffffffffffffffffffffff16815260200190815260200160002060009054906101000a900473ffffffffffffffffffffffffffffffffffffffff169050620004ac60405180606001604052806026815260200162003bb4602691393383620006c3565b8091505090565b6000604051620004c39062000799565b604051809103906000f080158015620004e0573d6000803e3d6000fd5b5090508073ffffffffffffffffffffffffffffffffffffffff166313af4035336040518263ffffffff1660e01b81526004016200051e919062000863565b600060405180830381600087803b1580156200053957600080fd5b505af11580156200054e573d6000803e3d6000fd5b5050505060008190506200057d6040518060600160405280602a815260200162003b61602a91393383620006c3565b80600160003373ffffffffffffffffffffffffffffffffffffffff1673ffffffffffffffffffffffffffffffffffffffff16815260200190815260200160002060006101000a81548173ffffffffffffffffffffffffffffffffffffffff021916908373ffffffffffffffffffffffffffffffffffffffff1602179055505050565b6000806000803373ffffffffffffffffffffffffffffffffffffffff1673ffffffffffffffffffffffffffffffffffffffff16815260200190815260200160002060009054906101000a900473ffffffffffffffffffffffffffffffffffffffff1690506200068960405180606001604052806025815260200162003bda602591393383620006c3565b8091505090565b60016020528060005260406000206000915054906101000a900473ffffffffffffffffffffffffffffffffffffffff1681565b62000761838383604051602401620006de9392919062000ae0565b6040516020818303038152906040527ffcec75e0000000000000000000000000000000000000000000000000000000007bffffffffffffffffffffffffffffffffffffffffffffffffffffffff19166020820180517bffffffffffffffffffffffffffffffffffffffffffffffffffffffff838183161783525050505062000766565b505050565b60006a636f6e736f6c652e6c6f6790508151602083016000808383865afa5050505050565b6113ff8062000b2583390190565b611c3d8062001f2483390190565b6000604051905090565b600080fd5b600080fd5b600073ffffffffffffffffffffffffffffffffffffffff82169050919050565b6000620007e882620007bb565b9050919050565b620007fa81620007db565b81146200080657600080fd5b50565b6000813590506200081a81620007ef565b92915050565b600060208284031215620008395762000838620007b1565b5b6000620008498482850162000809565b91505092915050565b6200085d81620007db565b82525050565b60006020820190506200087a600083018462000852565b92915050565b600080fd5b600080fd5b6000601f19601f8301169050919050565b7f4e487b7100000000000000000000000000000000000000000000000000000000600052604160045260246000fd5b620008d5826200088a565b810181811067ffffffffffffffff82111715620008f757620008f66200089b565b5b80604052505050565b60006200090c620007a7565b90506200091a8282620008ca565b919050565b600067ffffffffffffffff8211156200093d576200093c6200089b565b5b62000948826200088a565b9050602081019050919050565b82818337600083830152505050565b60006200097b62000975846200091f565b62000900565b9050828152602081018484840111156200099a576200099962000885565b5b620009a784828562000955565b509392505050565b600082601f830112620009c757620009c662000880565b5b8135620009d984826020860162000964565b91505092915050565b600060208284031215620009fb57620009fa620007b1565b5b600082013567ffffffffffffffff81111562000a1c5762000a1b620007b6565b5b62000a2a84828501620009af565b91505092915050565b600081519050919050565b600082825260208201905092915050565b60005b8381101562000a6f57808201518184015260208101905062000a52565b60008484015250505050565b600062000a888262000a33565b62000a94818562000a3e565b935062000aa681856020860162000a4f565b62000ab1816200088a565b840191505092915050565b6000602082019050818103600083015262000ad8818462000a7b565b905092915050565b6000606082019050818103600083015262000afc818662000a7b565b905062000b0d602083018562000852565b62000b1c604083018462000852565b94935050505056fe60806040523480156200001157600080fd5b50336000806101000a81548173ffffffffffffffffffffffffffffffffffffffff021916908373ffffffffffffffffffffffffffffffffffffffff1602179055506200007c604051806060016040528060288152602001620013d7602891396200008260201b60201c565b62000208565b6200012281604051602401620000999190620001e4565b6040516020818303038152906040527f41304fac000000000000000000000000000000000000000000000000000000007bffffffffffffffffffffffffffffffffffffffffffffffffffffffff19166020820180517bffffffffffffffffffffffffffffffffffffffffffffffffffffffff83818316178352505050506200012560201b60201c565b50565b60006a636f6e736f6c652e6c6f6790508151602083016000808383865afa5050505050565b600081519050919050565b600082825260208201905092915050565b60005b838110156200018657808201518184015260208101905062000169565b60008484015250505050565b6000601f19601f8301169050919050565b6000620001b0826200014a565b620001bc818562000155565b9350620001ce81856020860162000166565b620001d98162000192565b840191505092915050565b60006020820190508181036000830152620002008184620001a3565b905092915050565b6111bf80620002186000396000f3fe608060405234801561001057600080fd5b506004361061007d5760003560e01c80637b7636a11161005b5780637b7636a1146100d85780637c83510f1461010857806384b439c0146101265780638da5cb5b146101425761007d565b806313af4035146100825780631c4bdaa31461009e578063243e280b146100bc575b600080fd5b61009c600480360381019061009791906108e5565b610160565b005b6100a6610231565b6040516100b3919061092b565b60405180910390f35b6100d660048036038101906100d19190610a8c565b61023e565b005b6100f260048036038101906100ed9190610b01565b61039d565b6040516100ff9190610c0c565b60405180910390f35b6101106104c6565b60405161011d9190610c78565b60405180910390f35b610140600480360381019061013b9190610a8c565b610558565b005b61014a6106c3565b6040516101579190610ca9565b60405180910390f35b3373ffffffffffffffffffffffffffffffffffffffff1660008054906101000a900473ffffffffffffffffffffffffffffffffffffffff1673ffffffffffffffffffffffffffffffffffffffff16146101ee576040517f08c379a00000000000000000000000000000000000000000000000000000000081526004016101e590610d36565b60405180910390fd5b806000806101000a81548173ffffffffffffffffffffffffffffffffffffffff021916908373ffffffffffffffffffffffffffffffffffffffff16021790555050565b6000600280549050905090565b3373ffffffffffffffffffffffffffffffffffffffff1660008054906101000a900473ffffffffffffffffffffffffffffffffffffffff1673ffffffffffffffffffffffffffffffffffffffff16146102cc576040517f08c379a00000000000000000000000000000000000000000000000000000000081526004016102c390610d36565b60405180910390fd5b6000600280549050905060026040518060600160405280838152602001428152602001848152509080600181540180825580915050600190039060005260206000209060030201600090919091909150600082015181600001556020820151816001015560408201518160020190816103459190610f62565b50505061036c604051806060016040528060228152602001611168602291393383856106ec565b807f6dda240fc875f1ee65b95abd125377f81bf199395a55b7f2ef46c713cae8c29860405160405180910390a25050565b6103a5610852565b60028054905082106103ec576040517f08c379a00000000000000000000000000000000000000000000000000000000081526004016103e390611080565b60405180910390fd5b60028281548110610400576103ff6110a0565b5b9060005260206000209060030201604051806060016040529081600082015481526020016001820154815260200160028201805461043d90610d85565b80601f016020809104026020016040519081016040528092919081815260200182805461046990610d85565b80156104b65780601f1061048b576101008083540402835291602001916104b6565b820191906000526020600020905b81548152906001019060200180831161049957829003601f168201915b5050505050815250509050919050565b6060600180546104d590610d85565b80601f016020809104026020016040519081016040528092919081815260200182805461050190610d85565b801561054e5780601f106105235761010080835404028352916020019161054e565b820191906000526020600020905b81548152906001019060200180831161053157829003601f168201915b5050505050905090565b3373ffffffffffffffffffffffffffffffffffffffff1660008054906101000a900473ffffffffffffffffffffffffffffffffffffffff1673ffffffffffffffffffffffffffffffffffffffff16146105e6576040517f08c379a00000000000000000000000000000000000000000000000000000000081526004016105dd90610d36565b60405180910390fd5b80600190816105f59190610f62565b506106c06040518060400160405280601d81526020017f4163636f756e742025732073657420666565642055524c3a2027257327000000815250336001805461063d90610d85565b80601f016020809104026020016040519081016040528092919081815260200182805461066990610d85565b80156106b65780601f1061068b576101008083540402835291602001916106b6565b820191906000526020600020905b81548152906001019060200180831161069957829003601f168201915b505050505061078e565b50565b60008060009054906101000a900473ffffffffffffffffffffffffffffffffffffffff16905090565b6107888484848460405160240161070694939291906110cf565b6040516020818303038152906040527f5a477632000000000000000000000000000000000000000000000000000000007bffffffffffffffffffffffffffffffffffffffffffffffffffffffff19166020820180517bffffffffffffffffffffffffffffffffffffffffffffffffffffffff838183161783525050505061082d565b50505050565b6108288383836040516024016107a693929190611122565b6040516020818303038152906040527fe0e9ad4f000000000000000000000000000000000000000000000000000000007bffffffffffffffffffffffffffffffffffffffffffffffffffffffff19166020820180517bffffffffffffffffffffffffffffffffffffffffffffffffffffffff838183161783525050505061082d565b505050565b60006a636f6e736f6c652e6c6f6790508151602083016000808383865afa5050505050565b60405180606001604052806000815260200160008152602001606081525090565b6000604051905090565b600080fd5b600080fd5b600073ffffffffffffffffffffffffffffffffffffffff82169050919050565b60006108b282610887565b9050919050565b6108c2816108a7565b81146108cd57600080fd5b50565b6000813590506108df816108b9565b92915050565b6000602082840312156108fb576108fa61087d565b5b6000610909848285016108d0565b91505092915050565b6000819050919050565b61092581610912565b82525050565b6000602082019050610940600083018461091c565b92915050565b600080fd5b600080fd5b6000601f19601f8301169050919050565b7f4e487b7100000000000000000000000000000000000000000000000000000000600052604160045260246000fd5b61099982610950565b810181811067ffffffffffffffff821117156109b8576109b7610961565b5b80604052505050565b60006109cb610873565b90506109d78282610990565b919050565b600067ffffffffffffffff8211156109f7576109f6610961565b5b610a0082610950565b9050602081019050919050565b82818337600083830152505050565b6000610a2f610a2a846109dc565b6109c1565b905082815260208101848484011115610a4b57610a4a61094b565b5b610a56848285610a0d565b509392505050565b600082601f830112610a7357610a72610946565b5b8135610a83848260208601610a1c565b91505092915050565b600060208284031215610aa257610aa161087d565b5b600082013567ffffffffffffffff811115610ac057610abf610882565b5b610acc84828501610a5e565b91505092915050565b610ade81610912565b8114610ae957600080fd5b50565b600081359050610afb81610ad5565b92915050565b600060208284031215610b1757610b1661087d565b5b6000610b2584828501610aec565b91505092915050565b610b3781610912565b82525050565b600081519050919050565b600082825260208201905092915050565b60005b83811015610b77578082015181840152602081019050610b5c565b60008484015250505050565b6000610b8e82610b3d565b610b988185610b48565b9350610ba8818560208601610b59565b610bb181610950565b840191505092915050565b6000606083016000830151610bd46000860182610b2e565b506020830151610be76020860182610b2e565b5060408301518482036040860152610bff8282610b83565b9150508091505092915050565b60006020820190508181036000830152610c268184610bbc565b905092915050565b600082825260208201905092915050565b6000610c4a82610b3d565b610c548185610c2e565b9350610c64818560208601610b59565b610c6d81610950565b840191505092915050565b60006020820190508181036000830152610c928184610c3f565b905092915050565b610ca3816108a7565b82525050565b6000602082019050610cbe6000830184610c9a565b92915050565b7f43616c6c6572206f66207468652066756e6374696f6e206973206e6f7420746860008201527f65206f776e657221000000000000000000000000000000000000000000000000602082015250565b6000610d20602883610c2e565b9150610d2b82610cc4565b604082019050919050565b60006020820190508181036000830152610d4f81610d13565b9050919050565b7f4e487b7100000000000000000000000000000000000000000000000000000000600052602260045260246000fd5b60006002820490506001821680610d9d57607f821691505b602082108103610db057610daf610d56565b5b50919050565b60008190508160005260206000209050919050565b60006020601f8301049050919050565b600082821b905092915050565b600060088302610e187fffffffffffffffffffffffffffffffffffffffffffffffffffffffffffffffff82610ddb565b610e228683610ddb565b95508019841693508086168417925050509392505050565b6000819050919050565b6000610e5f610e5a610e5584610912565b610e3a565b610912565b9050919050565b6000819050919050565b610e7983610e44565b610e8d610e8582610e66565b848454610de8565b825550505050565b600090565b610ea2610e95565b610ead818484610e70565b505050565b5b81811015610ed157610ec6600082610e9a565b600181019050610eb3565b5050565b601f821115610f1657610ee781610db6565b610ef084610dcb565b81016020851015610eff578190505b610f13610f0b85610dcb565b830182610eb2565b50505b505050565b600082821c905092915050565b6000610f3960001984600802610f1b565b1980831691505092915050565b6000610f528383610f28565b9150826002028217905092915050565b610f6b82610b3d565b67ffffffffffffffff811115610f8457610f83610961565b5b610f8e8254610d85565b610f99828285610ed5565b600060209050601f831160018114610fcc5760008415610fba578287015190505b610fc48582610f46565b86555061102c565b601f198416610fda86610db6565b60005b8281101561100257848901518255600182019150602085019450602081019050610fdd565b8683101561101f578489015161101b601f891682610f28565b8355505b6001600288020188555050505b505050505050565b7f507562206974656d20646f6573206e6f74206578697374210000000000000000600082015250565b600061106a601883610c2e565b915061107582611034565b602082019050919050565b600060208201905081810360008301526110998161105d565b9050919050565b7f4e487b7100000000000000000000000000000000000000000000000000000000600052603260045260246000fd5b600060808201905081810360008301526110e98187610c3f565b90506110f86020830186610c9a565b611105604083018561091c565b81810360608301526111178184610c3f565b905095945050505050565b6000606082019050818103600083015261113c8186610c3f565b905061114b6020830185610c9a565b818103604083015261115d8184610c3f565b905094935050505056fe4163636f756e74202573207075626c6973686564206974656d2025643a2027257327a2646970667358221220d78713d0d561853c3853c9bc3cdfcfad58fcbc61459666c71cb82260b1286f8064736f6c634300081300335075626c697368657220636f6e747261637420686173206265656e20636f6e737472756374656421608060405234801561001057600080fd5b50336000806101000a81548173ffffffffffffffffffffffffffffffffffffffff021916908373ffffffffffffffffffffffffffffffffffffffff160217905550611bdd806100606000396000f3fe608060405234801561001057600080fd5b50600436106100885760003560e01c80637262561c1161005b5780637262561c146101015780637358152a1461011d5780638b46a2b4146101395780638da5cb5b1461015557610088565b80630472f4181461008d57806313af4035146100ab5780633b47a9ac146100c757806341a7726a146100e5575b600080fd5b610095610173565b6040516100a291906115c8565b60405180910390f35b6100c560048036038101906100c0919061161b565b610277565b005b6100cf610348565b6040516100dc9190611726565b60405180910390f35b6100ff60048036038101906100fa919061161b565b610407565b005b61011b6004803603810190610116919061161b565b6106dd565b005b61013760048036038101906101329190611774565b610a5d565b005b610153600480360381019061014e91906117d9565b610e8f565b005b61015d611207565b60405161016a919061183b565b60405180910390f35b60606003805480602002602001604051908101604052809291908181526020016000905b8282101561026e57838290600052602060002090600402016040518060800160405290816000820160009054906101000a900473ffffffffffffffffffffffffffffffffffffffff1673ffffffffffffffffffffffffffffffffffffffff1673ffffffffffffffffffffffffffffffffffffffff168152602001600182015481526020016002820160009054906101000a900460ff16600181111561023f5761023e611479565b5b600181111561025157610250611479565b5b815260200160038201548152505081526020019060010190610197565b50505050905090565b3373ffffffffffffffffffffffffffffffffffffffff1660008054906101000a900473ffffffffffffffffffffffffffffffffffffffff1673ffffffffffffffffffffffffffffffffffffffff1614610305576040517f08c379a00000000000000000000000000000000000000000000000000000000081526004016102fc906118d9565b60405180910390fd5b806000806101000a81548173ffffffffffffffffffffffffffffffffffffffff021916908373ffffffffffffffffffffffffffffffffffffffff16021790555050565b60606001805480602002602001604051908101604052809291908181526020016000905b828210156103fe57838290600052602060002090600202016040518060400160405290816000820160009054906101000a900473ffffffffffffffffffffffffffffffffffffffff1673ffffffffffffffffffffffffffffffffffffffff1673ffffffffffffffffffffffffffffffffffffffff1681526020016001820154815250508152602001906001019061036c565b50505050905090565b3373ffffffffffffffffffffffffffffffffffffffff1660008054906101000a900473ffffffffffffffffffffffffffffffffffffffff1673ffffffffffffffffffffffffffffffffffffffff1614610495576040517f08c379a000000000000000000000000000000000000000000000000000000000815260040161048c906118d9565b60405180910390fd5b600060405180604001604052808373ffffffffffffffffffffffffffffffffffffffff16815260200142815250905060006104cf83611230565b90506000600260008373ffffffffffffffffffffffffffffffffffffffff1673ffffffffffffffffffffffffffffffffffffffff16815260200190815260200160002054905060008111156105a557826001808361052d9190611928565b8154811061053e5761053d61195c565b5b906000526020600020906002020160008201518160000160006101000a81548173ffffffffffffffffffffffffffffffffffffffff021916908373ffffffffffffffffffffffffffffffffffffffff16021790555060208201518160010155905050610671565b600183908060018154018082558091505060019003906000526020600020906002020160009091909190915060008201518160000160006101000a81548173ffffffffffffffffffffffffffffffffffffffff021916908373ffffffffffffffffffffffffffffffffffffffff160217905550602082015181600101555050600180549050905080600260008473ffffffffffffffffffffffffffffffffffffffff1673ffffffffffffffffffffffffffffffffffffffff168152602001908152602001600020819055505b610694604051806060016040528060308152602001611aee603091393386611242565b8373ffffffffffffffffffffffffffffffffffffffff167f6ff6eaed699c246ce4a81c625294e51377e7c325c1c73e5bfa3b44be72806d0260405160405180910390a250505050565b3373ffffffffffffffffffffffffffffffffffffffff1660008054906101000a900473ffffffffffffffffffffffffffffffffffffffff1673ffffffffffffffffffffffffffffffffffffffff161461076b576040517f08c379a0000000000000000000000000000000000000000000000000000000008152600401610762906118d9565b60405180910390fd5b600061077682611230565b90506000600260008373ffffffffffffffffffffffffffffffffffffffff1673ffffffffffffffffffffffffffffffffffffffff168152602001908152602001600020549050600081036107cb575050610a5a565b6000600260008473ffffffffffffffffffffffffffffffffffffffff1673ffffffffffffffffffffffffffffffffffffffff1681526020019081526020016000208190555060018080549050111561099757600060018080805490506108319190611928565b815481106108425761084161195c565b5b90600052602060002090600202016040518060400160405290816000820160009054906101000a900473ffffffffffffffffffffffffffffffffffffffff1673ffffffffffffffffffffffffffffffffffffffff1673ffffffffffffffffffffffffffffffffffffffff168152602001600182015481525050905060006108cc8260000151611230565b905081600180856108dd9190611928565b815481106108ee576108ed61195c565b5b906000526020600020906002020160008201518160000160006101000a81548173ffffffffffffffffffffffffffffffffffffffff021916908373ffffffffffffffffffffffffffffffffffffffff1602179055506020820151816001015590505082600260008373ffffffffffffffffffffffffffffffffffffffff1673ffffffffffffffffffffffffffffffffffffffff1681526020019081526020016000208190555050505b60018054806109a9576109a861198b565b5b6001900381819060005260206000209060020201600080820160006101000a81549073ffffffffffffffffffffffffffffffffffffffff0219169055600182016000905550509055610a14604051806060016040528060308152602001611b78603091393385611242565b8273ffffffffffffffffffffffffffffffffffffffff167fd4da1c95251a1c543838518bae8531facb525bc74cf1ac0ed8fb308479958c2e60405160405180910390a250505b50565b3373ffffffffffffffffffffffffffffffffffffffff1660008054906101000a900473ffffffffffffffffffffffffffffffffffffffff1673ffffffffffffffffffffffffffffffffffffffff1614610aeb576040517f08c379a0000000000000000000000000000000000000000000000000000000008152600401610ae2906118d9565b60405180910390fd5b6000610af783836112e1565b90506000600460008373ffffffffffffffffffffffffffffffffffffffff1673ffffffffffffffffffffffffffffffffffffffff16815260200190815260200160002054905060008103610b4c575050610e8b565b6000600460008473ffffffffffffffffffffffffffffffffffffffff1673ffffffffffffffffffffffffffffffffffffffff1681526020019081526020016000208190555060016003805490501115610da057600060036001600380549050610bb59190611928565b81548110610bc657610bc561195c565b5b90600052602060002090600402016040518060800160405290816000820160009054906101000a900473ffffffffffffffffffffffffffffffffffffffff1673ffffffffffffffffffffffffffffffffffffffff1673ffffffffffffffffffffffffffffffffffffffff168152602001600182015481526020016002820160009054906101000a900460ff166001811115610c6457610c63611479565b5b6001811115610c7657610c75611479565b5b815260200160038201548152505090506000610c9a826000015183602001516112e1565b9050816003600185610cac9190611928565b81548110610cbd57610cbc61195c565b5b906000526020600020906004020160008201518160000160006101000a81548173ffffffffffffffffffffffffffffffffffffffff021916908373ffffffffffffffffffffffffffffffffffffffff1602179055506020820151816001015560408201518160020160006101000a81548160ff02191690836001811115610d4757610d46611479565b5b02179055506060820151816003015590505082600460008373ffffffffffffffffffffffffffffffffffffffff1673ffffffffffffffffffffffffffffffffffffffff1681526020019081526020016000208190555050505b6003805480610db257610db161198b565b5b6001900381819060005260206000209060040201600080820160006101000a81549073ffffffffffffffffffffffffffffffffffffffff021916905560018201600090556002820160006101000a81549060ff0219169055600382016000905550509055610e3a6040518060600160405280602d8152602001611b4b602d9139338686611318565b8373ffffffffffffffffffffffffffffffffffffffff167f8f22061a7389d6620c735385174537c8baaf1439735a4a569906d00f95c0458184604051610e8091906119c9565b60405180910390a250505b5050565b3373ffffffffffffffffffffffffffffffffffffffff1660008054906101000a900473ffffffffffffffffffffffffffffffffffffffff1673ffffffffffffffffffffffffffffffffffffffff1614610f1d576040517f08c379a0000000000000000000000000000000000000000000000000000000008152600401610f14906118d9565b60405180910390fd5b600060405180608001604052808573ffffffffffffffffffffffffffffffffffffffff168152602001848152602001836001811115610f5f57610f5e611479565b5b81526020014281525090506000610f7685856112e1565b90506000600460008373ffffffffffffffffffffffffffffffffffffffff1673ffffffffffffffffffffffffffffffffffffffff168152602001908152602001600020549050600081111561108757826003600183610fd59190611928565b81548110610fe657610fe561195c565b5b906000526020600020906004020160008201518160000160006101000a81548173ffffffffffffffffffffffffffffffffffffffff021916908373ffffffffffffffffffffffffffffffffffffffff1602179055506020820151816001015560408201518160020160006101000a81548160ff021916908360018111156110705761106f611479565b5b02179055506060820151816003015590505061118d565b600383908060018154018082558091505060019003906000526020600020906004020160009091909190915060008201518160000160006101000a81548173ffffffffffffffffffffffffffffffffffffffff021916908373ffffffffffffffffffffffffffffffffffffffff1602179055506020820151816001015560408201518160020160006101000a81548160ff0219169083600181111561112f5761112e611479565b5b0217905550606082015181600301555050600380549050905080600460008473ffffffffffffffffffffffffffffffffffffffff1673ffffffffffffffffffffffffffffffffffffffff168152602001908152602001600020819055505b6111b16040518060600160405280602d8152602001611b1e602d9139338888611318565b8573ffffffffffffffffffffffffffffffffffffffff167f66ddc840fe0c0e2d79e178ffe79c6ede8c6fcf1c61cf1edb4adb1d1e40ee3278866040516111f791906119c9565b60405180910390a2505050505050565b60008060009054906101000a900473ffffffffffffffffffffffffffffffffffffffff16905090565b600061123b826113ba565b9050919050565b6112dc83838360405160240161125a93929190611a63565b6040516020818303038152906040527ffcec75e0000000000000000000000000000000000000000000000000000000007bffffffffffffffffffffffffffffffffffffffffffffffffffffffff19166020820180517bffffffffffffffffffffffffffffffffffffffffffffffffffffffff83818316178352505050506113c4565b505050565b60006112ec826113e9565b60106112f7856113ba565b73ffffffffffffffffffffffffffffffffffffffff16901b17905092915050565b6113b4848484846040516024016113329493929190611aa1565b6040516020818303038152906040527f8ef3f399000000000000000000000000000000000000000000000000000000007bffffffffffffffffffffffffffffffffffffffffffffffffffffffff19166020820180517bffffffffffffffffffffffffffffffffffffffffffffffffffffffff83818316178352505050506113c4565b50505050565b6000819050919050565b60006a636f6e736f6c652e6c6f6790508151602083016000808383865afa5050505050565b6000819050919050565b600081519050919050565b600082825260208201905092915050565b6000819050602082019050919050565b600073ffffffffffffffffffffffffffffffffffffffff82169050919050565b600061144a8261141f565b9050919050565b61145a8161143f565b82525050565b6000819050919050565b61147381611460565b82525050565b7f4e487b7100000000000000000000000000000000000000000000000000000000600052602160045260246000fd5b600281106114b9576114b8611479565b5b50565b60008190506114ca826114a8565b919050565b60006114da826114bc565b9050919050565b6114ea816114cf565b82525050565b6080820160008201516115066000850182611451565b506020820151611519602085018261146a565b50604082015161152c60408501826114e1565b50606082015161153f606085018261146a565b50505050565b600061155183836114f0565b60808301905092915050565b6000602082019050919050565b6000611575826113f3565b61157f81856113fe565b935061158a8361140f565b8060005b838110156115bb5781516115a28882611545565b97506115ad8361155d565b92505060018101905061158e565b5085935050505092915050565b600060208201905081810360008301526115e2818461156a565b905092915050565b600080fd5b6115f88161143f565b811461160357600080fd5b50565b600081359050611615816115ef565b92915050565b600060208284031215611631576116306115ea565b5b600061163f84828501611606565b91505092915050565b600081519050919050565b600082825260208201905092915050565b6000819050602082019050919050565b60408201600082015161168a6000850182611451565b50602082015161169d602085018261146a565b50505050565b60006116af8383611674565b60408301905092915050565b6000602082019050919050565b60006116d382611648565b6116dd8185611653565b93506116e883611664565b8060005b8381101561171957815161170088826116a3565b975061170b836116bb565b9250506001810190506116ec565b5085935050505092915050565b6000602082019050818103600083015261174081846116c8565b905092915050565b61175181611460565b811461175c57600080fd5b50565b60008135905061176e81611748565b92915050565b6000806040838503121561178b5761178a6115ea565b5b600061179985828601611606565b92505060206117aa8582860161175f565b9150509250929050565b600281106117c157600080fd5b50565b6000813590506117d3816117b4565b92915050565b6000806000606084860312156117f2576117f16115ea565b5b600061180086828701611606565b93505060206118118682870161175f565b9250506040611822868287016117c4565b9150509250925092565b6118358161143f565b82525050565b6000602082019050611850600083018461182c565b92915050565b600082825260208201905092915050565b7f43616c6c6572206f66207468652066756e6374696f6e206973206e6f7420746860008201527f65206f776e657221000000000000000000000000000000000000000000000000602082015250565b60006118c3602883611856565b91506118ce82611867565b604082019050919050565b600060208201905081810360008301526118f2816118b6565b9050919050565b7f4e487b7100000000000000000000000000000000000000000000000000000000600052601160045260246000fd5b600061193382611460565b915061193e83611460565b9250828203905081811115611956576119556118f9565b5b92915050565b7f4e487b7100000000000000000000000000000000000000000000000000000000600052603260045260246000fd5b7f4e487b7100000000000000000000000000000000000000000000000000000000600052603160045260246000fd5b6119c381611460565b82525050565b60006020820190506119de60008301846119ba565b92915050565b600081519050919050565b60005b83811015611a0d5780820151818401526020810190506119f2565b60008484015250505050565b6000601f19601f8301169050919050565b6000611a35826119e4565b611a3f8185611856565b9350611a4f8185602086016119ef565b611a5881611a19565b840191505092915050565b60006060820190508181036000830152611a7d8186611a2a565b9050611a8c602083018561182c565b611a99604083018461182c565b949350505050565b60006080820190508181036000830152611abb8187611a2a565b9050611aca602083018661182c565b611ad7604083018561182c565b611ae460608301846119ba565b9594505050505056fe4163636f756e74202573206372656174656420737562736372697074696f6e206f6e207075626c69736865722025732e4163636f756e742025732063726561746564207265616374696f6e206f6e20707562206974656d2025732f25644163636f756e742025732072656d6f766564207265616374696f6e206f6e20707562206974656d2025732f25644163636f756e742025732072656d6f76656420737562736372697074696f6e206f6e207075626c69736865722025732ea264697066735822122011f400d22a6f3107ded0c7edd411c206ffc1c361564cf48620f9bc5fa842fd8664736f6c634300081300334163636f756e742025732063726561746564207375627363726962657220636f6e74726163742025732e4163636f756e742025732063726561746564207075626c697368657220636f6e74726163742025732e4163636f756e7420257320686173207375627363726962657220636f6e74726163742025732e4163636f756e7420257320686173207075626c697368657220636f6e74726163742025732ea26469706673582212205873631008590f3262b97b156afa072e4b55d71331c22d665d8a9b83852325bd64736f6c63430008130033526567697374727920636f6e747261637420686173206265656e20636f6e737472756374656421",
  "immutableReferences": {},
  "source": "// SPDX-License-Identifier: UNLICENSED\n\npragma solidity ^0.8.12;\n\nimport \"@ganache/console.log/console.sol\";\n\nimport \"./FeedPublisher.sol\";\nimport \"./FeedSubscriber.sol\";\n\ncontract FeedRegistry {\n    \n    // Mapping of publisher contracts\n    mapping(address => address) public publisherContracts;\n    // Mapping of subscriber contracts\n    mapping(address => address) public subscriberContracts;\n\n    constructor() {\n        console.log(\"Registry contract has been constructed!\");\n    }\n\n    /**\n    * @notice Creates a new publisher contract\n    **/\n    function setupPublisher(string memory feedUrl) public {\n        FeedPublisher c = new FeedPublisher();\n        c.setFeedUrl(feedUrl);\n        c.setOwner(msg.sender);\n        address ca = address(c);\n        console.log(\"Account %s created publisher contract %s.\", msg.sender, ca);\n        publisherContracts[msg.sender] = ca;\n    }\n\n    /**\n    * @notice Returns the sender's publisher contract\n    **/\n    function getPublisherContract() public view returns (address) {\n        address ca = publisherContracts[msg.sender];\n        console.log(\"Account %s has publisher contract %s.\", msg.sender, ca);\n        return ca;\n    }\n\n    /**\n    * @notice Creates a new subscriber contract\n    **/\n    function setupSubscriber() public {\n        FeedSubscriber c = new FeedSubscriber();\n        c.setOwner(msg.sender);\n        address ca = address(c);\n        console.log(\"Account %s created subscriber contract %s.\", msg.sender, ca);\n        subscriberContracts[msg.sender] = ca;\n    }\n\n    /**\n    * @notice Returns the sender's subscriber contract\n    **/\n    function getSubscriberContract() public view returns (address) {\n        address ca = subscriberContracts[msg.sender];\n        console.log(\"Account %s has subscriber contract %s.\", msg.sender, ca);\n        return ca;\n    }\n\n    /**\n    * @notice Returns the sender's subscriber contract\n    **/\n    function getSubscriberContractByAddress(address addr) public view returns (address) {\n        address ca = subscriberContracts[addr];\n        console.log(\"Account %s has subscriber contract %s.\", msg.sender, ca);\n        return ca;\n    }\n\n}\n",
  "sourcePath": "/home/matthias/ethereum/test/contracts/FeedRegistry.sol",
  "compiler": {
    "name": "solc",
    "version": "0.8.19+commit.7dd6d404.Emscripten.clang"
  },
  "schemaVersion": "3.4.13",
  "updatedAt": "2023-04-16T10:06:04.128Z",
  "networkType": "ethereum",
  "devdoc": {
    "kind": "dev",
    "methods": {},
    "version": 1
  },
  "userdoc": {
    "kind": "user",
    "methods": {
      "getPublisherContract()": {
        "notice": "Returns the sender's publisher contract*"
      },
      "getSubscriberContract()": {
        "notice": "Returns the sender's subscriber contract*"
      },
      "getSubscriberContractByAddress(address)": {
        "notice": "Returns the sender's subscriber contract*"
      },
      "setupPublisher(string)": {
        "notice": "Creates a new publisher contract*"
      },
      "setupSubscriber()": {
        "notice": "Creates a new subscriber contract*"
      }
    },
    "version": 1
  }
}